:020000040800F2
:100000002008002001010008090100080B01000878
:100010000D0100080F010008110100080000000098
:1000200000000000000000000000000013010008B4
:100030001501000800000000170100081901000860
:100040001B0100081B0100081B0100081B01000820
:100050001B0100081B0100081B0100081B01000810
:100060001B0100081B0100081B0100081B01000800
:100070001B0100081B0100081B0100081B010008F0
:100080001B0100081B0100081B0100081B010008E0
:100090001B0100081B0100081B0100081B010008D0
:1000A0001B0100081B0100081B0100081B010008C0
:1000B0001B0100081B0100081B0100081B010008B0
:1000C0001B0100081B0100081B0100081B010008A0
:1000D0001B010008B90200081B0100081B010008F1
:1000E0001B0100081B0100081B010008DFF80CD0F1
:1000F00000F018F8004800476D04000820080020B0
:100100000648804706480047FEE7FEE7FEE7FEE7B1
:10011000FEE7FEE7FEE7FEE7FEE7FEE7590200081E
:10012000ED000008064C074D06E0E06840F00103D2
:1001300094E8070098471034AC42F6D3FFF7DAFF93
:100140009C050008BC05000810B500F001F810BDC2
:100150000CB50020019000903348006840F48030D6
:100160003149086000BF3048006800F4003000905A
:100170000198401C0190009818B90198B0F5A06F43
:10018000F1D12948006800F4003010B1012000903E
:1001900001E0002000900098012843D12348006826
:1001A00040F01000214908600846006820F0030074
:1001B00008600846006840F0020008601A4840687D
:1001C000194948600846406848600846406840F45D
:1001D000806048600846406820F47C10486008460B
:1001E000406840F4E81048600846006840F08070BD
:1001F000086000BF0C48006800F000700028F9D0CB
:100200000948406820F003000749486008464068F4
:1002100040F00200486000BF0348406800F00C0056
:100220000828F9D10CBD0000001002400020024057
:10023000042808D14FF0E021096941F004014FF092
:10024000E022116107E04FF0E021096921F004018B
:100250004FF0E0221161704710B51348006840F07C
:1002600001001149086008464068104908400E49DD
:100270004860084600680E4908400B490860084677
:10028000006820F4802008600846406820F4FE00E2
:1002900048604FF41F008860FFF756FF4FF0006082
:1002A0000449086010BD0000001002400000FFF883
:1002B000FFFFF6FE08ED00E008B540F225511748B3
:1002C00000F043F8012810D1144800F068F8C1B2DA
:1002D000134802880088401C114B18801148815433
:1002E00040F225510D4800F021F840F224410B481E
:1002F00000F02BF801280FD108480088009007482B
:10030000001D0088009000200649054A1288885484
:1003100001200549087000BF08BD000000380140F9
:10032000140000201C0000201600002010B5002240
:10033000002340F66A14A14200D100BF0A12012432
:100340009440A3B2DC43048010BD70B50246002483
:1003500000230025002040F66A16B14200D100BFFC
:10036000C1F3421501F01F03012606FA03F3012D24
:1003700002D19689334006E0022D02D1168A33401D
:1003800001E0968A33400C12012606FA04F416881E
:10039000344013B10CB1012000E0002070BD0146D3
:1003A0008888C0F30800704702E008C8121F08C11F
:1003B000002AFAD170477047002001E001C1121FE6
:1003C000002AFBD17047000010B56FF00400FFF762
:1003D0002FFF044800680449B0FBF1F003490860AE
:1003E00010BD00000000002000127A00180000205C
:1003F00010B504464FF47A7104FB01F000F002F8E6
:1004000010BD000010B5184B1B6800FB03F201285B
:1004100005D1A2F108034FF0E024636104E0A2F1EA
:100420000A034FF0E024636100234FF0E024A3614E
:1004300023461B6943F00103236100BF4FF0E02313
:10044000196901F001031BB101F48033002BF5D0D1
:100450004FF0E0231B6923F001034FF0E0242361F8
:100460000023A36110BD000018000020FFF7ACFFBF
:100470004648806940F01C0044498861444840680F
:1004800020F47000424948600846406840F48010FB
:1004900048604048006820F00F003E490860084668
:1004A000006840F0010008603B48006820F0706080
:1004B000394908600846006840F080700860344898
:1004C000C06840F400503249C860324808300068C3
:1004D00040F480702F49083108602F4808300068C8
:1004E00040F480402C49083108604DE02848C0683D
:1004F00020F400502649C86026480830006840F4BF
:10050000807024490831086023480830006840F4AE
:1005100080402149083108604FF47A70FFF768FF86
:100520001B48C06840F400501949C8601948083099
:10053000006820F4807017490831086016480830B8
:10054000006840F480401449083108604FF47A7024
:10055000FFF74EFF0E48C06840F400500C49C860D9
:100560000C480830006840F480700A49083108607F
:1005700009480830006820F48040074908310860C5
:100580004FF47A70FFF734FFB0E70000001002402C
:100590000010014004080140040C0140BC050008A3
:1005A000000000201C000000A8030008D805000877
:1005B0001C00002004080000B803000800A24A0440
:1005C0000000000000000000010203040607080903
:0805D000000000000000000023
:04000005080000ED02
:00000001FF
