:020000040800F2
:10000000604E002001010008ED0E00087D0D000883
:10001000510E000865020008FB44000800000000C3
:100020000000000000000000000000003143000854
:10003000FD03000800000000D7010008A12300080C
:100040001B0100081B0100081B0100081B01000820
:100050001B0100081B0100081B0100081B01000810
:100060001B0100081B0100081B0100081B01000800
:100070001B0100081B0100081B0100081B010008F0
:100080001B0100081B0100081B0100081B010008E0
:100090001B0100081B0100081B0100081B010008D0
:1000A0001B0100081B0100081B0100081B010008C0
:1000B0001B0100081B0100081B0100081B010008B0
:1000C0001B0100081B0100081B0100081B010008A0
:1000D0001B0100081B0100081B0100081B01000890
:1000E0001B0100081B0100081B010008DFF80CD0F1
:1000F00000F044F80048004739460008604E0020F0
:100100000648804706480047FEE7FEE7FEE7FEE7B1
:10011000FEE7FEE7FEE7FEE7FEE7FEE781430008B5
:10012000ED00000872B6704762B67047EFF31080BA
:1001300072B6704780F31088704730BF704720BF99
:100140007047B0FA80F0704790FAA0F0B0FA80F0F3
:10015000704790FAA0F07047D2B201E000F8012B8E
:10016000491EFBD270470022F6E710B513460A4637
:1001700004461946FFF7F0FF204610BD064C074D18
:1001800006E0E06840F0010394E807009847103467
:10019000AC42F6D3FFF7AEFFE4480008044900087C
:1001A0001D484FF0FF010170002080F309881B48B3
:1001B000016881F308881A484FF08051016062B6E7
:1001C000FEE717484FF080510160704714484FF028
:1001D00080510160704772B6EFF3098028B1203872
:1001E00080E8F00F0F490968086000B50E488047A5
:1001F0005DF804EB0D480E490A78027009480D4974
:100200000A680260106890E8F00F203080F30988D7
:100210004EF0F40E62B6704722ED00E03000002090
:1002200004ED00E014010020892000088E00002069
:100230008F0000201801002010B500F005F8BDE87F
:10024000104000F09DBD000010B500F0EDFA04492B
:100250000968BDE81040B0FBF1F002F0B9B8000049
:10026000BC480008FEE70000054910B500204860C2
:1002700000F0A6F800F006F8BDE8104000F086B8DF
:10028000100000202DE9F041104D002427462C805D
:100290006C80AC60EC606C61AC612C61FFF746FF78
:1002A000804600266C6100F049F800F057F8686954
:1002B000761C36040744360CF4D0C5E90474404675
:1002C000AC61BDE8F041FFF735BF00001000002031
:1002D00003490969884201D9401A704700207047D4
:1002E0001000002010B5FFF721FF04494C69FFF70B
:1002F00021FF2046BDE81040FFF7EABF10000020B4
:1003000010B5FFF7EFFF0446FFF710FF034A002187
:100310005161FFF70FFF204610BD000010000020C4
:1003200010B5FFF703FF04498C69FFF703FF204670
:10033000BDE81040FFF7CCBF1000002010B5064C00
:100340002088401C2080608810B900F051F8A0601F
:100350006088401C608010BD1000002010B50A4C61
:100360006088401E0004000C60800CD100F040F852
:10037000E060A168401A6169814200D26061A169B0
:10038000814200D2A06110BD1000002010B5FFF71F
:10039000CDFE0446FFF7D2FF1021054800F059FDBD
:1003A000FFF7DCFF2046BDE81040FFF7C3BE0000AA
:1003B000F808002001494860704700001000002044
:1003C000094810B5016841F08071016007480021BB
:1003D0004160016841F00101016000F025FABDE8CB
:1003E0001040FFF7E7BF0000FCED00E0001000E068
:1003F0000148406870470000001000E070477047F7
:100400002DE9F84FDFF8B8910024A9F1040B234639
:100410000F2709F1040AABF1040EC9E00125A5403C
:100420002A40AA427DD1674ED1F804C0ACEB060841
:10043000B44532D014DCBCF1030F3AD009DCBCF176
:10044000000F2AD0BCF1010F1CD0BCF1020F31D13A
:100450001DE0BCF1110F17D0BCF1120F2AD119E029
:10046000B8F5881F19D006DCB8F5803F15D0B8F56F
:10047000801F1FD111E0B8F5001F0ED0B8F5041F82
:1004800018D10AE0CB6815E0CB681B1D12E0CB68E1
:1004900008330FE0CB680C330CE08B682BB1012BD9
:1004A0004FF0080303D0456104E0042302E0056136
:1004B00000E00023FF2A01D8064601E000F104060F
:1004C0004FEA840501D9A5F12005D6F8008007FA86
:1004D00005FC28EA0C0803FA05F548EA0508C6F801
:1004E00000804D68ED0062D5374DAE6946F00106DB
:1004F000AE61AD6924F0030605F001050095334DAA
:1005000006EB050CDCF80850A607360F07FA06F8CC
:1005100025EA0805DFF8B880404503D14FF0000810
:1005200017E044E0DFF8AC80404502D14FF001080D
:100530000FE0DFF8A480404502D14FF0020808E048
:10054000DFF89880404502D14FF0030801E04FF0FA
:10055000040808FA06F848EA0508CCF808804D684F
:10056000D9F80060ED024D4601D5164300E09643F0
:100570002E604D68DAF80060AD02554601D516438D
:1005800000E096432E604D68DBF80060AD035D46E9
:1005900001D5164300E096432E604D68DEF80060FA
:1005A000ED03754601D5164300E096432E60641CAA
:1005B0000D682A46E5407FF431AFBDE8F88F0000B2
:1005C000080401400000111000100240000001402A
:1005D00000080140000C01400010014000140140DF
:1005E0000AB1016170470904FBE700000148806817
:1005F0007047000000000020074810B5016841F076
:1006000010010160032000F067F80F2000F006F8E9
:1006100000F024F8002010BD0020024070B50D4D00
:1006200004464FF47A712878B1FBF0F00A49096862
:10063000B1FBF0F000F0D4FA48B9102C07D2002238
:100640002146501E00F028F800206C6070BD01208B
:1006500070BD0000000000200C0000200C4808B510
:10066000816941F001018161816901F0010100911D
:10067000C16941F08051C161C06900F080500090B3
:100680000448416821F0E06141F00071416008BD1B
:100690000010024000000140F0B40E4B1B680C46F5
:1006A000C3F30223C3F10705042D00D90425191D46
:1006B000072901D2002300E0DB1E012606FA05F11E
:1006C000491E214099409E40761E16403143F0BCA1
:1006D00003F01CBF0CED00E0064900F007020868BB
:1006E0004FF6FF03184040EA0220034A1043086017
:1006F000704700000CED00E00000FA052DE9F0471E
:100700000F46050061D0434E306800F00700B84244
:1007100009D2306820F0070038433060306800F0BC
:100720000700B84251D128683B4C810712D54007D9
:1007300003D5606840F4E06060602878000703D566
:10074000606840F4605060606068A96820F0F00064
:10075000084360602878C00728D06868012810D056
:100760002168022810D0890700292EDA616821F05B
:10077000030101436160FFF739FF804641F2883988
:100780000DE021688903EFE78901EDE7FFF72EFF10
:10079000A0EB0801494502D90320BDE8F087606855
:1007A000696800F00C00B0EB810FEFD1306800F009
:1007B0000700B8420BD9306820F00700384330609A
:1007C000306800F00700B84201D00120E5E7287842
:1007D000400705D56068E96820F4E0600843606080
:1007E0002878000706D56068296920F4605040EA3F
:1007F000C100606000F03EF86168084AC1F303116F
:10080000515CC8400649086006480068FFF706FFCB
:100810000020C2E700200240001002405A480008B1
:100820000C00002004000020014800687047000010
:100830000C0000200448054900684968044AC1F3D7
:100840000221515CC84070470C000020001002409B
:100850006A4800080448054900684968044AC1F329
:10086000C221515CC84070470C00002000100240BB
:100870006A4800080E4A51680E4801F00C03042B28
:1008800011D0082B0FD10C48C1F38343C903C05CBE
:100890000AD55168084AC1F34041921E515C054A8D
:1008A0005043B0FBF1F070470449484370470000E3
:1008B0000010024000127A004A48000800093D007A
:1008C0002DE9F84F040070D02078C04DC00749D002
:1008D0006868C0F38100012807D06868C0F3810010
:1008E000022809D16868C00306D52868800339D575
:1008F00060680028E7D035E06068B0F5803F0BD035
:1009000010B1B0F5A02F11D0286820F480302860F5
:10091000286820F4802002E0286840F480302860B5
:10092000606890B1FFF762FE06460AE0286840F46E
:1009300080202860F0E700BFFFF758FE801B642886
:1009400073D828688003F7D50CE0FFF74FFE064602
:1009500005E000BFFFF74AFE801B6428F0D8286836
:100960008003F7D420789A4E80074FF001094FF0AA
:10097000000839D5686810F00C0F07D06868C0F31C
:100980008100022809D16868C00306D4286880075E
:1009900014D52069012808D110E02069B0B1C6F84B
:1009A0000090FFF723FE074605E00AE1FFF71EFE71
:1009B000C01B0228C4D828688007F7D52868616959
:1009C00020F0F80040EAC10028600DE0C6F8008081
:1009D000FFF70CFE074604E0FFF708FEC01B0228E5
:1009E00023D828688007F7D4207800072CD57948C9
:1009F000A169D9B1C0F80090FFF7F8FD074604E0FF
:100A0000FFF7F4FDC01B02280FD8686A8007F7D5EE
:100A100071484FF4FA510068B0FBF1F0009000BF4C
:100A20000098411E0091FAD20EE080E0C0F80080EC
:100A3000FFF7DCFD074604E0FFF7D8FDC01B0228E6
:100A400075D8686A8007F7D42078400760D5E869D0
:100A50000027C00008D4E86940F08050E861E869E8
:100A6000012700F0805000905C480168C90513D44C
:100A70000168834641F480710160FFF7B7FD82464B
:100A800006E000BFFFF7B2FDA0EB0A0064284ED8D5
:100A9000DBF80000C005F5D5E06801280AD008B1F0
:100AA000052813D0286A20F001002862286A20F067
:100AB000040002E0286A40F001002862E06841F288
:100AC000883B98B1FFF792FD82460BE0286A40F020
:100AD00004002862EEE700BFFFF788FDA0EB0A01E3
:100AE00059455AD8286A8007F6D50CE0FFF77EFDF5
:100AF000824605E0FFF77AFDA0EB0A0159454CD884
:100B0000286A8007F6D41FB1E86920F08050E861B8
:100B1000E06988B36968C1F38101022944D00228E1
:100B2000C6F8608004D0FFF761FD044638E034E089
:100B3000FFF75CFD074604E0FFF758FDC01B0228E5
:100B40002BD828688001F7D4206AB0F5803F05D102
:100B50006868A16820F4003008436860D4E908019F
:100B60000843696821F4741108436860C6F860900E
:100B7000FFF73CFD044606E025E000BFFFF736FD29
:100B8000001B022809D828688001F7D51BE000BFA8
:100B9000FFF72CFD001B022802D90320BDE8F88FC7
:100BA00028688001F4D40EE00128F7D06868226A32
:100BB00000F48031914204D1616A00F470108842DF
:100BC00001D00120EAE70020E8E700000010024021
:100BD00000004242800442420C00002000700040AD
:100BE00010B5401EB0F1807F01D3012010BD4FF041
:100BF000E02460610F21601703F088FC0020A061F1
:100C000007202061002010BD70B5040004D094F8C6
:100C10004100002510B106E0012070BD84F840506D
:100C2000204600F023F8242084F841002068C168A1
:100C300021F40051C160204603F0CAFB206801691D
:100C400021F4904101612068416921F02A0141614C
:100C50002068C16841F40051C1606564202084F8B7
:100C6000410084F842006563002070BD30B585B056
:100C7000002400940194029403940068144988426B
:100C800024D11448816941F480418161816901F472
:100C900080410491816941F00401816180690E4DB8
:100CA00000F0040004904FF40070009002200190C6
:100CB0000320039069462846FFF7A2FB2815CDE9DB
:100CC0000004694628460294FFF79AFB05B030BD40
:100CD0000038014000100240000801402DE9F843AF
:100CE000044690F84100984616460D46202802D04A
:100CF0000220BDE8F88385B17EB100206064212028
:100D000084F84100FFF772FCA6848146E684A0685F
:100D10002027B0F5805F02D003E00120E9E72069D9
:100D200010B12E4600250EE000260CE08021204662
:100D300003F0AAFBA8B9C6B116F8010B21684860F8
:100D4000E08C401EE084E08C4B464FF00002CDF872
:100D500000800028EAD14FF04001204603F094FBC8
:100D600040B184F841700320C3E735F8020BC0F3AB
:100D70000800E3E784F841700020BAE7FEE70000CE
:100D80002DE9F04186B0002420480094019402949B
:100D90000394816941F010018161816901F01001C2
:100DA0000491816941F020018161816901F0200194
:100DB0000491816941F0040181618069144F00F060
:100DC00004004FF400550490002229463846FFF7EE
:100DD00007FCDFF84080002208214046FFF700FCB6
:100DE0000095022601250396CDE90154694638464F
:100DF000FFF706FB0820CDE90005CDE9024669466C
:100E00004046FFF7FDFA06B0BDE8F0810010024051
:100E100000100140000801400C4810B50A4901606B
:100E20004FF4E1314160002181600C22C160C0E9D2
:100E300004128161C161FFF7E7FE002803D0BDE81D
:100E40001040FFF7DCBA10BD00380140B0080020A8
:100E5000FEE70A46002100F023B800000D480E49C5
:100E60000246C0E9001200218160C1600161416158
:100E70008161C16101620163C162416200F14801A7
:100E80008163C1634FF420510164416403480260EF
:100E90007047000008090020484541502C00002000
:100EA00010B5002A21D000281FD000244FEA0403E7
:100EB0005B1C41EA0424042BFAD310F0030305D190
:100EC0000BE000BF521E00F8011B5B1C002A0CD077
:100ED000042BF7D301E010C0121F042AFBD202E05A
:100EE00000F8011B521E002AFAD110BDFEE7704720
:100EF00002480068002800D00047704744000020E6
:100F000010B5044600F0BEF8464800210A220170E0
:100F100045480170454801704548016045480160F9
:100F200045480170454801704548017045480160D9
:100F300045480160454801604548017045480068E2
:100F4000B0FBF2F0444A1060444A106830B14448A3
:100F5000006818B1126802C0521EFCD141480160FD
:100F600041480160414801604148016041480160D9
:100F700041480160414801604148017001F068FF4B
:100F800002F01AF8204601F039FA2088002847D1EB
:100F9000204601F02FFD2088002841D1204601F095
:100FA00035FD208800283BD1204601F0DBFD20885C
:100FB000002835D1204601F071FF208800282FD16C
:100FC000204602F01FF92088002829D1204602F08F
:100FD00089FB2088002823D1204601F07FFC20884F
:100FE00000281DD1204601F017FB2088002817D1CA
:100FF000204603F035F82088002811D1204602F061
:10100000D1FA208800280BD1204603F083F82088ED
:10101000002805D101F0F0F9BDE81040FFF767BFE7
:1010200010BD00005800002060000020A800002033
:1010300014010020180100208E0000208F000020E5
:10104000900000209C000020A0000020A4000020B0
:10105000B0000020BC480008AC0000209848000800
:1010600094480008380000203C0000204000002088
:1010700044000020480000204C00002050000020C8
:10108000DE000020054806490068096800EB810081
:10109000044920F0070008607047000094480008E9
:1010A0009848000830000020184810B50078012842
:1010B0002BD1FFF73BF804461548017801B3491ED0
:1010C00011F0FF0101701BD112480078C0B901F086
:1010D000ADFE11490870114900EB400051F8201095
:1010E0000F4801600F480068814209D051F88C0F09
:1010F000401C08600C480168491C0160FFF766F855
:101100002046BDE81040FFF715B810BD6000002074
:1011100058000020A80000208F0000206446002016
:101120001801002014010020D40000202DE9F04116
:10113000044626480E461746007810B142F6E16094
:101140000FE064B1FEF7F2FF8046FFF7F7F8204D9D
:101150002878401CC0B22870012805D006E045F66A
:10116000C3501080BDE8F08101F0ECFFFFF7F6F806
:101170004046FEF7DFFF1748C4E900060026266256
:1011800084F825602020A66284F8240004F1080079
:1011900001F07FFD204601F0D3FC0F490888401C78
:1011A0000880FEF7C3FF0446FFF7C8F82878401E02
:1011B00010F0FF00287001D101F0D2FFFFF7CEF848
:1011C0002046FEF7B7FF3E80CCE700005800002025
:1011D000A80000204D5554588C0000202DE9F04FF8
:1011E0000646854889B01C460078129D17468B46F6
:1011F00010B146F2AE10C3E036B147B1B7F5004FBB
:1012000005D045F62560BBE045F6C350B8E07B4904
:101210003068884202D045F6C450B1E04FF0000873
:101220000CB1C4F80080FEF781FF0090FFF786F84C
:1012300096F82500724A012190B19246336A1268ED
:10124000934222D1401C86F825000CB1B06A206080
:10125000FFF784F80098FEF76DFF45F282708FE08B
:101260001068306290F8370086F8240086F8251060
:101270000CB1B06A2060FFF771F80098FEF75AFFD2
:10128000A5F8008009B0BDE8F08F380407D5FFF756
:1012900065F80098FEF74EFF46F2B01070E059482E
:1012A00002783AB1FFF75AF80098FEF743FF46F686
:1012B000635065E08146017001F044FFFFF74EF88E
:1012C0000098FEF737FF376ADAF8000097F8372002
:1012D00090F837108A421ED997F8360008282ED287
:1012E000DFE800F00413161613131616384601F043
:1012F000DDFEDAF8000090F8370087F8370001F0DB
:10130000ADFD384601F082FE05E087F8371002E0B7
:10131000384601F0A5FC5B460422314601A801F0E5
:101320002DFCFEF703FF0646FFF708F899F80000CA
:10133000401E10F0FF0089F8000023D024E0FEF7E3
:10134000F5FE0446FEF7FAFF99F80000401E10F083
:10135000FF0289F800200CD101F002FF2A48008822
:1013600038B1FEF7FBFF2046FEF7E4FE01F0C8FEB1
:1013700004E0FEF7F3FF2046FEF7DCFE46F62D60A4
:1013800028807FE701F0ECFEFEF7E8FF3046FEF72D
:10139000D1FE00F02FF9FEF7C9FE0646FEF7CEFF9C
:1013A000DAF8001091F8350040B101280CD002287D
:1013B0001CD003280ED046F62E6010E00CB1086C4D
:1013C0002060A5F800800BE00CB1086C206046F2AC
:1013D000A91004E00CB1C4F8008047F2D92028809D
:1013E000FEF7BCFF3046FEF7A5FE4BE70CB1086CDC
:1013F000206045F6C250F2E7580000204D55545881
:1014000014010020A80000206C0000202DE9F84FF6
:101410000446724815468A46007810B146F20E20FE
:1014200011E03CB1080008D0B1F5004F05D045F6F9
:10143000256008E045F6C35005E069492068884208
:1014400004D045F6C4501080BDE8F88FFEF76EFE5C
:101450000646FEF773FFDFF88C91216AD9F8000089
:10146000814207D0FEF77AFF3046FEF763FE45F271
:101470008170B0E0DFF8708198F80010491CC9B2A3
:1014800088F80010012901D101F05CFEFEF766FF2B
:101490003046FEF74FFEFEF7ABFF0646A06294F81B
:1014A0002500DFF848B1401E10F0FF0084F8250049
:1014B00021D0FEF73BFE0446FEF740FF98F80000FF
:1014C000401E10F0FF0288F800200CD101F048FE09
:1014D000BBF8000038B1FEF741FF2046FEF72AFEB8
:1014E00001F00EFE04E0FEF739FF2046FEF722FE73
:1014F00045F283706FE0208A04F10807D0B3D9F871
:10150000001094F8243091F837209A4214D00846FD
:1015100001F0CCFDD9F8001094F8240081F83700D0
:1015200001F09CFCD9F8000001F08CFDD9F8000016
:101530002F4990F837000870386800231A468168F0
:10154000216291F8370084F82400012084F82500F6
:101550002046009601F0FDFBFEF7E8FD0446FEF78D
:10156000EDFE98F80000401E10F0FF0288F8002001
:1015700024D025E0FFE700262662FEF7D7FD0446CB
:10158000FEF7DCFE98F80000401E10F0FF0088F81F
:1015900000000CD101F0E4FDBBF8000038B1FEF70B
:1015A000DDFE2046FEF7C6FD01F0AAFD04E0FEF7D1
:1015B000D5FE2046FEF7BEFD2E8045E701F0D0FDAA
:1015C000FEF7CCFE2046FEF7B5FD5FEA0A4001D4E7
:1015D00000F010F80020288036E7000058000020B6
:1015E0004D55545814010020A80000206C00002024
:1015F0008E000020154810B50078002824D114482A
:101600000078002820D1FEF791FD044601F00EFC81
:1016100010490870104900EB400051F820000F49B4
:1016200008600F490968884209D050F88C1F491C8E
:1016300001600C480168491C0160FEF7C2FD2046AC
:10164000BDE81040FEF776BD10BD00005800002038
:10165000A80000208F000020644600201801002010
:1016600014010020D400002070B504461248007810
:1016700010B146F662501DE010480078012802D0F3
:1016800045F6896016E00E4D2878FA2802D345F217
:1016900009200FE0FEF74AFD0646FEF74FFE2878C8
:1016A000401C287001F04EFDFEF758FE3046FEF754
:1016B00041FD0020208070BD580000206000002007
:1016C000A80000202DE9F04116460C460546FEF71D
:1016D0002DFD0746FEF732FE29460D48002501295B
:1016E00001D0057001E0012101700A480CB10460CD
:1016F00005E009490A220968B1FBF2F10160FEF731
:101700002DFE3846FEF716FD3580BDE8F08100005D
:10171000B0000020AC000020BC48000870B50446B2
:101720001848007810B146F6655029E01648007850
:10173000012802D045F6896022E0144D287890B146
:10174000FEF7F4FC0646FEF7F9FD2878401E10F07F
:10175000FF0028700AD0FEF701FE3046FEF7EAFCD3
:1017600046F663500CE046F6645009E001F0F8FCE0
:10177000FEF7F4FD3046FEF7DDFCFFF73BFF0020EF
:10178000208070BD5800002060000020A8000020CC
:1017900070B50F4D0446287818B145F68A60208050
:1017A00070BD01F043FB0B4908700B4908700B49F1
:1017B00000EB400051F82000094908600949086021
:1017C00001202870FEF7ECFC43F69920E7E70000C3
:1017D000600000208F0000208E0000206446002062
:1017E00018010020140100202DE9F0410646FEF703
:1017F0009DFC0546FEF7A2FD2E48002404602E48FD
:1018000004802E4804802E4804602E4804602E4830
:1018100004602E4804602E4804602E480481FEF7C0
:101820009DFD2846FEF786FCFEF780FC0746FEF786
:1018300085FD2948056818E0FEF778FC0746FEF7A5
:101840007DFDC5F8B040C5F8B44045F8744F2C6331
:10185000AC61AC82EC826C62AC62FEF7C9FD45F80B
:10186000200FA5F134008481AD6AFEF777FD38467C
:10187000FEF760FC002DDFD1FEF758FC0746FEF7AF
:101880005DFD1648056806E0FEF750FC0746FEF7CA
:1018900055FDAC85AD69FEF761FD3846FEF74AFCA3
:1018A000002DF1D102F082FA02F0CCFC3480BDE8C8
:1018B000F0810000740000206E000020BE000020B7
:1018C000D0000020E4000020040100205C00002083
:1018D000A000002058460020D800002094000020DE
:1018E000F8B504466946244800F0A4FBBDF80000A2
:1018F00058BB6A460021022000F0FAFBBDF8000048
:1019000018BBFEF713FC0746FEF718FD1B4E00251B
:101910003560FEF723FD3846FEF70CFC18491948E0
:101920000A6803689A4202D9B2FBF3F010B90A219F
:10193000B2FBF1F06A46002100F0DAFB69460E487E
:1019400000F0F0F9BDF8000008B12080F8BDFEF706
:10195000EDFB0746FEF7F2FC0B480C4905603068CA
:1019600008600B4901200870FEF7F8FC3846FEF7C6
:10197000E1FB2580F8BD000098490020C000002050
:10198000BC480008A8480008D0000020C40000207F
:10199000CC00002002480068002800D000477047B3
:1019A000480000202DE9FF4F83B004467248DDE96E
:1019B0001785DDE910960078DDF854A0139F10B16B
:1019C00047F24A102AE04CB1059850B166B16B4815
:1019D000006887420BD246F630601FE047F2AD1038
:1019E0001CE047F24F1019E046F62F6016E01298FF
:1019F000B84202D346F6316010E046F27320B9F1E6
:101A0000200F0BD25FEA090103D0B9F11F0F02D0FA
:101A100008E05B4900E05B498C4203D0288007B0B6
:101A2000BDE8F08F204601F06DFE4FF0000BA5F8E9
:101A300000B05FEAC8700AD05FEA887007D5304608
:101A400000215A4601E004C0491CB942FBD3129858
:101A5000CDE9007806EB8005DDE905012B4632462D
:101A600000F0AEFA0599A1620699E162049921623B
:101A700084F83790C4F850A0A56020605FEA0A009F
:101A800024D060651698A76366626060A4F83C8005
:101A90000020594604EB8002401C916710F0FF00C3
:101AA000F8D004F16000149900F0FEFF204600F029
:101AB00075F8FEF73BFB0646FEF740FC324D2878F2
:101AC000401CC0B22870012803D004E02F480068F1
:101AD000D7E701F037FBFEF741FC3046FEF72AFB63
:101AE00094F8370001F0BAF9204601F0ABFA20462D
:101AF00001F0CAFD26490888401C08802548007866
:101B0000012821D0FEF712FB0446FEF717FC2878C7
:101B1000401E10F0FF0129700ED101F021FB1E487C
:101B2000008848B1FEF71AFC2046FEF703FB07B019
:101B3000BDE8F04F01F0E4BAFEF710FC07B0204614
:101B4000BDE8F04FFEF7F6BAFEF7F0FA0446FEF7EE
:101B5000F5FB2878401E10F0FF01297001D101F03B
:101B6000FFFAFEF7FBFB2046FEF7E4FA07B0BDE8FC
:101B7000F04FFFF73FBD000058000020B8480008B4
:101B800094450020D0440020A8000020AC00002094
:101B9000DC000020600000206C0000200249096881
:101BA000002900D008477047380000202DE9F04197
:101BB000044651480E46007810B147F24E100AE034
:101BC0004E48844202D147F24C1004E04C48844213
:101BD00004D147F24D100880BDE8F0815CB9FEF7F2
:101BE000A5FA0546FEF7AAFB46480468FEF7B6FBD1
:101BF0002846FEF79FFAFEF799FA0746FEF79EFB86
:101C0000414D2878401CC0B22870012801D101F054
:101C100099FAFEF7A3FB3846FEF78CFA94F83600E3
:101C200008283BD2DFE800F004082B2B0B082B2BF5
:101C3000204601F03BFA02E0204602F097F804F15A
:101C4000600000F017FF204600F064F8204601F025
:101C50002DFD2E490888401E0880204601F052FDC7
:101C6000FF2084F83600FEF761FA0446FEF766FBB3
:101C70002878401E10F0FF00287030D031E094F832
:101C800034000728D8D2DFE800F004050405050574
:101C90000500D1E7204601F02EF8CDE7FEF746FA21
:101CA0000446FEF74BFB2878401E10F0FF0028701A
:101CB0000CD101F055FA1648008838B1FEF74EFBFA
:101CC0002046FEF737FA01F01BFA04E0FEF746FB68
:101CD0002046FEF72FFA46F62D6030807CE701F0B3
:101CE0003FFAFEF73BFB2046FEF724FA0020308047
:101CF000BDE8F041FFF77EBC58000020D044002032
:101D00009445002014010020A8000020DC000020E1
:101D10006C00002002490968002900D0084770477C
:101D20003C0000207FB50D460446FEF7FFF906464D
:101D3000FEF704FB1CB114480068844208D1FEF78A
:101D40000DFB3046FEF7F6F947F2571028807FBDAD
:101D5000FEF704FB3046FEF7EDF90C48007858B169
:101D60000020CDE90205009003460246019021467D
:101D7000074800F085FC7FBD04B029462046BDE839
:101D8000704001F0C1BD0000140100205800002087
:101D90005452455302490968002900D0084770474A
:101DA000400000202DE9F0478146574814461E4662
:101DB0000078884610B146F2AE1006E0080006D062
:101DC000B1F5004F03D045F6256018803DE00027AF
:101DD00004B12760FEF7AAF98246FEF7AFFA4B4D31
:101DE0002968486CD8B1401E804648640CB1086C24
:101DF0002060FEF7FDFA29680A6C801AC1F8A0007D
:101E0000D1F8A420824201D2C1F8A400FEF7A6FABC
:101E10005046FEF78FF937804046BDE8F0875FEA0D
:101E2000084007D5FEF79AFA5046FEF783F946F2C6
:101E3000B01009E03648017849B1FEF78FFA5046F4
:101E4000FEF778F946F6635030800020E5E701217F
:101E50008046017001F076F9FEF780FA5046FEF7F1
:101E600069F900214B460722084600F087FEFEF77D
:101E70005DF98146FEF762FA98F80010491E11F0EC
:101E8000FF0188F8001001D101F06AF9FEF766FA47
:101E90004846FEF74FF9FFF7ADFBFEF747F98046DE
:101EA000FEF74CFA286890F8351031B1012916D0A8
:101EB00003291AD046F62E601BE074B1006C206036
:101EC000FEF796FA29680A6C801AC1F8A000D1F8CA
:101ED000A420824201D2C1F8A40037800AE00CB1EC
:101EE000006C206046F2A91003E004B1276047F2BD
:101EF000D92030802868446CFEF730FA4046FEF75F
:101F000019F9204689E7000058000020140100203C
:101F1000A80000202DE9F0470546274816460F4641
:101F200000781C4610B147F259100AE046F2D5205D
:101F30003FB136B1FEF7FAF88146FEF7FFF91DB161
:101F400004E01880BDE8F0871C4805684FF00008E1
:101F5000286858B195F83C00C00713D0FEF7FEF989
:101F60004846FEF7E7F80020696A1AE0FEF7F6F93E
:101F70004846FEF7DFF8C7F8008047F25210C6F86F
:101F800000800AE0FEF7EAF94846FEF7D3F8C7F802
:101F9000008047F25410C6F800802080D2E7401C31
:101FA000091D0A68002AFAD03860A96B081A306047
:101FB000A4F80080C6E700005800002014010020AB
:101FC00010B5029C02EB840222F007024FF08074ED
:101FD00042E90204164842F80C0C4FF0123042F865
:101FE000100CA2F114004FF0023240E903134FF03D
:101FF000113140F8101CD10040F8141C4FF0093189
:1020000040F8181C910040F81C1C4FF007314FF0AD
:10201000033440F8201C610040F8241C4FF00531C7
:1020200040F8281D5100C0E9092440F8041D10BDE6
:10203000093A00081FB5104A904202D147F25B10DE
:1020400004E00E4A904203D147F25C1008801FBDA5
:102050000B4A127852B10022CDE9022101460092CA
:1020600013460192074800F00BFB1FBD04B0BDE80A
:10207000104001F099BD0000D0440020944500209C
:10208000580000205453555370B51548006800B1EE
:102090008047FEF7ADF9134C134A2168126891424C
:1020A00007D0D1F89430C31A41F8903F8D682B4483
:1020B0008B60C2F89400FEF723F92168D1F8B020B4
:1020C000824201D2C1F8B000084AD1F8B430106899
:1020D000834201D2C1F8B4000020106070BD00003E
:1020E0004C0000201401002018010020A400002052
:1020F0002DE9F041074634480E461546007810B1E8
:1021000047F275201EE0314C207810B146F663503E
:1021100018E046B1022E06D0042E05D0082E02D0BB
:1021200045F625600EE05FB1FEF700F88046FEF749
:1021300005F92078401CC0B22070012805D006E0C7
:1021400047F27E201080BDE8F08100F0FBFFFEF733
:1021500005F94046FDF7EEFF32461D4E2B46394647
:10216000306801F0C5FD288898B1FDF7DFFF05460E
:10217000FEF7E4F82078401E10F0FF01217001D135
:1021800000F0EEFFFEF7EAF82846BDE8F041FDF763
:10219000D1BF306800F08AFFFDF7C8FF0646FEF7A2
:1021A000CDF82078401E10F0FF00207001D100F023
:1021B000D7FFFEF7D3F83046FDF7BCFFFFF71AFA5A
:1021C00000202880BFE7000058000020A800002061
:1021D000140100202DE9F047594EDDE90854367806
:1021E00016B147F27520A5E0DFF858A19AF8006013
:1021F00016B146F663509DE015F00E0647F27E29B3
:1022000045F6256705D0022E03D0042E06D0082EF1
:1022100007D11BB912B909B900287CD035F01E0CC2
:1022200002D02780BDE8F087C5F3001547F2792C6E
:1022300047F278284FF47A773DB142F20F75A94200
:1022400012D900BFA4F800C0ECE7BB4202D347F2AA
:102250007B206FE03B2A02D947F27A206AE03B29D3
:10226000F0D8632802D804E0B84202D3A4F8008072
:10227000D8E7354D4FF4FA7CC1EB01112D68BCFB5A
:10228000F5FC63446B43B3FBF7F34FF461677843AA
:1022900000EB8100104400FB0537E7B3FDF746FF74
:1022A0008046FEF74BF89AF800005546401CC0B235
:1022B0008AF80000012801D100F044FFFEF74EF833
:1022C0004046FDF737FF3246204E234639463068F8
:1022D00001F00EFD208898B1FDF728FF0446FEF7B7
:1022E0002DF82878401E10F0FF01297001D100F070
:1022F00037FFFEF733F82046BDE8F047FDF71ABF79
:10230000306800F0D3FEFDF711FF0646FEF716F821
:102310002878401E00E00FE010F0FF00287001D187
:1023200000F01EFFFEF71AF83046FDF703FFFFF737
:1023300061F90020208075E7A4F8009072E70000A2
:1023400058000020A8000020BC480008140100200C
:1023500000B585B000F01CF8FEF74AF804AA002189
:1023600003920091CDE90110064807490023007847
:102370001A4600EB400001EB8001044800F080F9B0
:1023800005B000BD8E000020644600205449434B38
:1023900002480068002800D0004770475000002025
:1023A00010B5FDF7C3FE0446FDF7C8FF07490878DE
:1023B000401C0870FDF7D2FF2046FDF7BBFEFFF77B
:1023C000C7FFBDE81040FEF76FBE000058000020B8
:1023D0004FF0E021401E48610648026822F07F422B
:1023E0000260086940F005000861086940F00200D9
:1023F0000861704720ED00E070470000034A0021AB
:102400001160034A118001807047000078000020AD
:102410007C0000202DE9F05F9A4690460D46044668
:102420000A9FFDF783FE8346FDF788FF5FEA0800F9
:1024300024D0012807D0B0F5004F1FD06FF4004121
:1024400018EB010F12D1206A30EA0500C4E9080A2E
:10245000208A04F108064FF0000990B14B4D28780E
:10246000401CC0B22870012815D016E0FDF776FF99
:102470005846FDF75FFE45F6256068E0206A284370
:10248000E4E7FDF76BFF5846FDF754FEA7F8009010
:10249000206ABDE8F09F00F055FEFDF75FFF58464B
:1024A000FDF748FE36682FE090F88410766801F05A
:1024B0000F01012919D002291ED004290DD00829A5
:1024C0000FD0FDF733FE0446FDF738FF2878401E95
:1024D00010F0FF00287026D032E0216AC26F114050
:1024E00007E0216AC26F114009E0C16F236A0A4602
:1024F00099438A4204D006E0C16F226A914311B128
:10250000524600F047F816B1B0680028CCD1FDF76C
:102510000DFE0646FDF712FF2878401E10F0FF0062
:10252000287017D018E000F01BFE1948008838B159
:10253000FDF714FF2046FDF7FDFD00F0E1FD04E08E
:10254000FDF70CFF2046FDF7F5FD43F6FF20388030
:1025500000209EE700F004FEFDF700FF3046FDF787
:10256000E9FD5FEA084001D4FFF744F8FDF7DEFD1E
:102570000546FDF7E3FE246AFDF7F0FE2846FDF769
:10258000D9FDA7F80090204683E70000A8000020AE
:102590006C00002070B50025C0F8801080F8355020
:1025A00080F834500446026490F83600082813D2AC
:1025B000DFE800F01212040412120F0F032802D1F8
:1025C000204601F0D3FB204600F008FD84F8365089
:1025D00002E0042084F836002046BDE8704000F098
:1025E0008ABB00000A4C0B4DFDF7A0FD0646FDF727
:1025F000A5FE2068401C20602868401C2860FDF76C
:10260000ADFE3046FDF796FDFEF772FCECE70000EC
:1026100054000020C000002000B50E4A89B00021FF
:1026200011600B2205910691CDE907200A480B4A5B
:102630000B4B006812681B680292CDE903011F2052
:10264000CDE900030023074A07A10C48FFF7AAF9C8
:1026500009B000BD540000207C48000878480008FC
:1026600074480008E525000875432F4F532D49494C
:10267000492049646C65205461736B00D04400208C
:102680002DE9F84F1D46DDE90CB4DDE90AA916462F
:102690000F468046FDF74AFD0090FDF74FFE1D48AE
:1026A0001D4A0188128891422DD2491C89B20180AD
:1026B0001A4802888A4200D2018019490868C0F885
:1026C0000080C0E902760582C0F814A0A0F8189036
:1026D000C0F81CB04068086012480121018112490D
:1026E00001604160002000F0B9FB1048007808B19B
:1026F0000F49087000202080FDF730FE0098BDE8EB
:10270000F84FFDF717BD0B490888401C088044F2BC
:102710005360F0E76C000020844800086E00002041
:102720006400002064460020944500208E000020B4
:1027300090000020700000203EB5374C374B02A9B6
:1027400020680268D51A9A4245D015DC344BD2185D
:102750002DD0344BD21822D0334BD21832D0334B39
:10276000DA4208D1C269CDE90021038B028AC1682F
:10277000806801F027F83EBD2D4AAA181ED02D4BC7
:10278000D21824D02C4BDA42F5D1C269CDE9002110
:10279000038B028AC168806800F08CFB3EBD00910B
:1027A000028BC36941698068FFF734FE3EBD018B2F
:1027B000C269806802AB00F031FD3EBD806801F067
:1027C000A3F83EBD018BC269806802AB21E080683E
:1027D00001F0EAF93EBD19481949007800EB4000C4
:1027E00001EB800000F0DAFC206802AB0021C26936
:1027F000144801F015F914480168491E0160E9D137
:10280000124909680160FDF7F3FD024602AB0021A1
:102810000F4801F005F93EBD680000205449434BC4
:10282000ADBAB2BE0DF90BFAF2F8F7FF0006F6FFEB
:1028300000F7FDF700FFEFFF03FE0FFE9000002002
:1028400064460020A8480020100100200C01002050
:10285000984900201D4D1E4C1E4E00BFFDF766FC22
:102860000746FDF76BFD208808B3FDF777FD384676
:10287000FDF760FCFDF7BCFD0746FFF75DFFFDF7C8
:10288000B7FD2968C01B814200D22860FDF74EFCCD
:102890000746FDF753FD3068406830602088401ED1
:1028A0002080FDF75BFD3846FDF744FCD6E70A497A
:1028B000002008810860486000F0E0FAFDF74EFD56
:1028C0003846FDF737FCFEF795FEC5E7740000209B
:1028D0006C0000206800002064460020F0B52F49FD
:1028E0002F4D89B000220A80296831B12D4E3188E0
:1028F000022905D244F2546135E044F2526132E0DB
:1029000029490023294F0A60296801F1200410E0B9
:1029100041F8087B5B1C41F8082B9BB241F8042C62
:1029200021F8102B41F80C2C21F8082C41F81C4CF4
:102930002034B6F800C06345EAD32B6841F81C3C4C
:102940001B490B601B490B601B490A801B490A800D
:102950001B490B6853B11B4B1B4D1C682D68AC42C7
:1029600007D244F25661018009B0F0BD44F25561CE
:10297000F9E7032405920692CDE907401868134B46
:1029800009681B68CDE903020092CDE90113002319
:102990000F4A10A11648FFF705F8E5E77000002080
:1029A0008048000884480008740000204E4F4E45BF
:1029B00064000020680000206C0000206E000020F1
:1029C0008848000890480008B84800088C4800086B
:1029D0005528000875432F4F532D49494920495325
:1029E00052205175657565205461736B00000000BD
:1029F00094450020034A00211160034A11800180A0
:102A0000704700008000002084000020F0B5164CC4
:102A1000216859B1154E318859B189B2491E2268D1
:102A20008FB2002502F1100329460EE045F21E7117
:102A300018E045F21D7115E0E2E802316D1C22F844
:102A4000081BADB242F8041C1033BD42F4D3116030
:102A500051601181D160064A2368136033889380E6
:102A6000D18011810180F0BDA04800089C48000879
:102A70005846002010B5428992B10A4903680C6893
:102A80001C6043680B60CB8844891B1BCB808B8800
:102A9000448923448B800021418181810160416010
:102AA000104610BD584600200181002141818181DE
:102AB0000160416070470000F0B54489DDE905E739
:102AC0000589AC4202D346F293501EE01B4DAE88FE
:102AD000CEB12C68761ED4F800C0C5F800C0AE8018
:102AE000EE88761CB6B2EE80B5F808C0B44500D2C8
:102AF0002E814689002556B1DB060ED403681C6082
:102B0000046025600CE045F21D703880F0BD046063
:102B1000012344604381256005E0436823604460ED
:102B200043895B1C4381868943899E4200D283810D
:102B300061602281C4F80CE03D80F0BD5846002061
:102B40000022074B05A14261C161196819B1816179
:102B50004861186070478261FBE7000020000000B8
:102B600088000020034A00211160034A118001807F
:102B700070470000880000208C0000202DE9F04103
:102B8000114D07460C4628680026194680F8342067
:102B900080F8356000F064FD64B1FC6004F1080663
:102BA00001223946286800F011F83946304600F015
:102BB00075F802E02868C687066320462968BDE8E4
:102BC000F04100F01BB800001401002010B5C287CE
:102BD0000024234601630EE04B6041F8103B641C67
:102BE00041F8103BA4B241F80C3C21F8083C41F8F4
:102BF000043C41F8180C9442EED310BD38B1426841
:102C0000C1F8C02081688968096AC161704791F87C
:102C10003400022803D0072803D004A002E004A057
:102C200000E005A0C1F8C0007047000020000000CF
:102C30005461736B205100005461736B2053656DB8
:102C40000000000005A2C1F8C020816811B18968A8
:102C5000096A00E001A1C161704700002000000086
:102C600070B580F83710C68F056B0FE0EC68208ACE
:102C70000834012807D92946204600F04FF8294694
:102C8000204600F00BF8761EB6B22035002EEDD1AE
:102C900070BD0021016041600181704730B58A68D4
:102CA000002392F8374002891AB1521C028102684F
:102CB0000BE0012202814B600B60016014E095681B
:102CC00095F83750A54203D85268002AF7D107E09B
:102CD00032B1146854B1C1E900426160116030BD85
:102CE0004B6042680A605160416030BD1160C1E9CB
:102CF0000032016030BD70B50646C48F056B07E039
:102D0000E8682946083000F009F8641EA4B22035AE
:102D1000002CF5D10020F087306370BD10B502891A
:102D20000023012A0BD00A6862B14C6874B1546068
:102D300022600289521E02814B600B6010BD03604D
:102D40004360F6E74A6813600260F2E7536042604E
:102D5000EFE7F8B50C46064691F8361000250698C0
:102D600008294ED2DFE801F04D4D04044D4D2828CE
:102D700094F83410032910D0A265A4F85C302064C4
:102D800036B12046FFF7B7FF21463046FFF75AFF1E
:102D900094F83600032806D008E00090214630461B
:102DA00000F030F8ECE7204600F0E0FF204600F0AD
:102DB00015F984F8365020E094F83410032910D027
:102DC000A265A4F85C30206436B12046FFF793FF7B
:102DD00021463046FFF736FF94F83600072806D024
:102DE00008E000902146304600F00CF8ECE7204661
:102DF00000F0BCFF042084F8360084F8355084F8D5
:102E00003450F8BD70B50C6B049DC98F0AE0E668BC
:102E1000864204D1C4E904022383E56170BD491EE2
:102E200089B220340029F2D170BD000010B5002411
:102E3000064802E02034E4B2001D01680029F9D000
:102E40000846FDF77EF92044C0B210BD34000020D2
:102E500001490020086070473400002000F01F0284
:102E600041090120C2F11F029040034A52F821306B
:102E7000034342F8213070473400002000F01F0265
:102E800041090120C2F11F029040034A52F821304B
:102E9000834342F82130704734000020034A002168
:102EA0001160034A118001807047000094000020E7
:102EB000980000202DE9FF4F83B01F46DDE9109AEE
:102EC00093460646FDF732F90546FDF737FA384CCA
:102ED0002078401CC0B22070012801D100F032F9E6
:102EE000FDF73CFA2846FDF725F9358A06F108007A
:102EF0001DB1B90530D500683CE0F80601D40023C7
:102F000000E01023CDE9009A5A4606F1200004990A
:102F1000FFF7D2FDFDF70AF90546FDF70FFA207815
:102F2000401E10F0FF0121700ED100F019F9214868
:102F3000008848B1FDF712FA2846FDF7FBF807B004
:102F4000BDE8F04F00F0DCB8FDF708FA07B02846FE
:102F5000BDE8F04FFDF7EEB8006801255B46D0E90B
:102F60000181CDF800903046049AFFF7F2FE6D1E05
:102F70004046ADB2002DF1D1FDF7D8F80546FDF77A
:102F8000DDF92078401E10F0FF00207001D100F024
:102F9000E7F8FDF7E3F92846FDF7CCF8380401D44B
:102FA000FEF728FB0021AAF8001007B0BDE8F08F5B
:102FB000A80000206C0000200020074B014600BF45
:102FC00000EB400203EB8202401C11811160C0B291
:102FD00051602028F4D370476446002010B50446A1
:102FE00090F83700FFF73AFF074994F8370009785F
:102FF0008842204603D1BDE8104000F023B8BDE868
:10300000104000F003B800008E00002090F8371048
:103010000B4A01EB410102EB810100220B8943B114
:103020005B1C0B810B68C0E903320A681061086001
:10303000704701230B81C2600261086048607047DD
:103040006446002090F837100A4A01EB410102EB78
:10305000810100220B893BB15B1C0B81C2604A6875
:103060000261D0604860704701230B81C260026139
:103070000860F7E76446002010B50289002A14D0E2
:10308000012A12D00021022A07D0D0E90024D368F7
:103090001961C2E90314E26005E0D0E90023C2E946
:1030A0000313C3E90321C0E9003210BD70B5054622
:1030B00090F83700114900EB400001EB8001D5E9A1
:1030C0000302002442B10B895B1E0B81D06090B1DA
:1030D00002612C61EC6070BD28B10A89521E0A8120
:1030E00004610860F5E70C810C604C6095F83700CE
:1030F000FFF7C4FEEDE74A60EBE7000064460020FE
:1031000010B5FDF713F80B490446002008700B4872
:103110000949016051F88C0F401C0860084801689B
:10312000491C0160FDF74DF82046BDE81040FDF751
:1031300001B800008F0000209445002018010020F5
:10314000D4000020044810B50078012803D1FDF711
:103150004FF90249086010BDA80000209C00002023
:103160000A4810B5007800280ED1FDF741F908494A
:103170000968401A07490A68824200D20860064975
:103180000A68824200D2086010BD0000A80000203A
:103190009C000020A0000020A400002070B5044680
:1031A00014480078012824D1FCF7C0FF0546FDF73C
:1031B000C5F82168B1B11048814213D04A6D12B1EF
:1031C000521E4A650ED1208902280BD30B48007885
:1031D00040B92046FFF750FF2068016D09B9084942
:1031E00009684165FDF7BAF82846BDE87040FCF76C
:1031F000A1BF70BDB0000020D0440020A800002076
:10320000AC000020034A00211160034A11800180B4
:1032100070470000B4000020B80000202DE9F84FEE
:103220001E46904689460446FCF780FF0090FDF755
:1032300085F8208A04F108074FF0000B50B1DFF841
:10324000BCA09AF80010491CC9B28AF800100129E4
:103250001AD01BE0256A681C0CD06D1CC4E9085804
:10326000FDF77CF80098FCF765FFA6F800B028464B
:10327000BDE8F88FFDF772F80098FCF75BFF46F6A3
:10328000C55030800020F3E7FFF75CFFFDF766F8DC
:103290000098FCF74FFF5FEA895002D53D893F68EF
:1032A0000CE03F6801250023B9687F681A46204674
:1032B000CDF80080FFF74DFD6D1EADB2002DF2D1AF
:1032C000246AFCF733FF0546FDF738F89AF800004A
:1032D000401E10F0FF008AF8000001D1FFF740FF08
:1032E000FDF73CF82846FCF725FF5FEA094001D4CA
:1032F000FEF780F9A6F800B02046B9E7A800002044
:103300000EB5964C964E2068450004E028466A4665
:103310000021FEF7EDFE30780128F7D16846FEF770
:1033200063FA904822680168914206D90A462168EA
:10333000B2FBF1F15FEA010803D100680A21B0FB9A
:10334000F1F8DFF824B2894F42F2107A5FF00006FC
:10335000FDF74EF80190FCF7E3FF85490860FCF7A4
:10336000E5FE0546FCF7EAFF8248834C01682160D0
:103370000660FCF7F3FF2846FCF7DCFE7F48236875
:1033800002689A422BD97E48824202D250460121DD
:1033900015E07C48824203D24FF47A700A210EE095
:1033A0007948824202D26420014608E0774882428E
:1033B00003D20A204FF47A7101E001205146B2FB9A
:1033C000F1F15843B0FBF1F0AAEB0000704980B274
:1033D000ABF800000A88824203D2088001E0ABF813
:1033E00000A0FEF7D7FA0024FCF7A0FE8146FCF708
:1033F000A5FF3D6842E000BFFCF798FE0290FCF795
:103400009DFFDFF8909199F80010491CC9B289F826
:103410000010012901D1FFF795FEFCF79FFF0298EC
:10342000FCF788FED5F89800C5E92660FCF77EFE1B
:103430000290FCF783FF99F80010491E11F0FF017C
:1034400089F800100CD1FFF78BFE5348008838B183
:10345000FCF784FF0298FCF76DFEFFF751FE04E0D5
:10346000FCF77CFF0298FCF765FE55F89C0F0444BE
:10347000FCF75CFE8146FCF761FF2D6AFCF76EFFEE
:103480004846FCF757FE002DB6D12CB33C48844289
:1034900002D25546012015E03A48844203D24FF447
:1034A0007A750A200EE03848844202D26425284604
:1034B00008E03648844203D20A254FF47A7001E0CE
:1034C00001255046B4FBF0F08146FCF72FFE029038
:1034D000FCF734FF3C6822E000250120F4E700BF40
:1034E000D4F89C006843B0FBF9F080B2504500D995
:1034F0005046A4F88800B4F88A10814201D2A4F89A
:103500008A0004F1A8026B46111D2046FEF702FD59
:10351000FCF70CFE0290FCF711FFD4F8BC40FCF75E
:103520001DFF0298FCF706FE002CD9D11B4801783C
:10353000012903D106706846FEF756F9FCF758FFDB
:103540000199401A16490A68824200D208606A4608
:1035500000214046FEF7CCFDFAE60000A84800082E
:10356000CC000020BC480008BC000020D80000208F
:103570005C000020C0000020C8000020C400002023
:10358000801A060000093D00005A62020084D71725
:10359000BE000020A80000206C000020BA0000201F
:1035A000D000002030B51D4A89B0002111601C4AAE
:1035B00011601C4A11601C4A11701C4A11701C4A8F
:1035C000136843B11B4B1C4D1C682D68AC4205D2DF
:1035D00046F62C6108E046F62B6105E0174C25788D
:1035E0001F2D04D346F62A61018009B030BD0325A2
:1035F00005910691CDE9075011481B6812680068D3
:10360000CDE90120CDE903312078009000230D4A57
:103610000DA11248FEF7C6F9E7E70000C000002040
:10362000C8000020C4000020CC000020BA00002008
:10363000AC480008B4480008B8480008A44800088E
:10364000B04800080133000875432F4F532D4949F6
:10365000492053746174205461736B00E447002067
:1036600010B5044631B10A460146064800F010FB89
:10367000032000E0022084F836002046BDE8104018
:10368000FFF714BDF0000020074B0022C0F8B8205F
:10369000196829B1C0F8BC10C1F8B80018607047AB
:1036A000C0F8BC20FAE70000D8000020D0E92E21A5
:1036B00000234AB181B1C2F8BC10C1F8B820C0F8EB
:1036C000BC30C0F8B8307047054A116009B1C1F884
:1036D000B830C0F8BC307047C2F8BC30F1E7000029
:1036E000D8000020044A00211160044A1180044AD5
:1036F0001160018070470000D8000020DC0000202D
:10370000D400002070B50025056085604560C56067
:10371000056145610446856127A0C4E907506562DB
:10372000A562E5622563E5872564A565A4F85C507C
:10373000002104F16000FFF7B7F925676567E567C9
:10374000A4F884500020C4F8805000BF04EB80012E
:10375000401C8D6710F0FF00F8D06564C4F8A050DD
:10376000C4F8A450A56384F88650C4F8AC50C4F8DB
:10377000A850A587A564E56425656565A4F888500B
:10378000A4F88A50C4F88C50C4F890503434FCF734
:103790002FFEC4E91805E567C4F8805004F8015B02
:1037A000202004F8015B04F8015B04F8810B04A0FD
:1037B00020C4C4E9005070BD3F5461736B00000029
:1037C000200000002DE9FC5F0546DDE90C760020B5
:1037D000994692468B463080FCF7A8FC8046FCF761
:1037E000ADFD464C2078401CC0B22070012801D1AC
:1037F000FFF7A8FCFCF7B2FD4046FCF79BFC0DB9B7
:103800003F480568DFF8FC8095F83600082852D25A
:10381000DFE800F00404262604042626CDE900761D
:103820004B465246594605F16000FFF745F9FCF753
:103830007DFC0546FCF782FD2078401E10F0FF015C
:10384000217031D1FFF78CFCB8F8000060B3FCF7B1
:1038500085FD2846FCF76EFCBDE8FC5FFFF750BC19
:1038600095F834000228D9D153465A4629460020FB
:103870000097FFF76EFAFCF759FC0546FCF75EFD72
:103880002078401E10F0FF01217001D1FFF768FC85
:10389000FCF764FD2846FCF74DFC5FEA09402AD49A
:1038A000BDE8FC5FFDF7A6BEFCF758FD2846BDE865
:1038B000FC5FFCF73FBCFCF739FC0546FCF73EFD1E
:1038C0002078401E10F0FF0020700CD1FFF748FC5C
:1038D000B8F8000038B1FCF741FD2846FCF72AFC97
:1038E000FFF70EFC04E0FCF739FD2846FCF722FC4C
:1038F00046F62D603080BDE8FC9F0000A800002047
:10390000140100206C0000202DE9F0410D46044612
:10391000FCF70CFC0746FCF711FD00262E8094F8FE
:103920003600082864D2DFE800F0040404040D39EE
:103930004955FCF713FD3846FCF7FCFB47F25310E2
:10394000288037E02F4D2878401CC0B2287001280D
:1039500001D1FFF7F7FBFCF701FD3846FCF7EAFB66
:1039600094F88600401E10F0FF0084F8860004D111
:1039700084F836602046FFF731FBFCF7D7FB04469E
:10398000FCF7DCFC2878401E10F0FF01297001D103
:10399000FFF7E6FBFCF7E2FC204609E094F886001E
:1039A000401E10F0FF0084F886001BD101200EE0BD
:1039B000FCF7C0FBBDE8F041FDF71CBE94F88600A3
:1039C000401E10F0FF0084F886000BD1022084F81E
:1039D000360007E094F88600401E10F0FF0084F8DF
:1039E000860003D0FCF7BAFC3846E1E70320EEE797
:1039F000FCF7B4FC3846FCF79DFB46F62D602880AA
:103A0000BDE8F081A8000020044808B50068FEF772
:103A1000C1F969460020FEF7C9F808BD140100206D
:103A20002DE9F84F984691468B460646FCF77EFBFB
:103A30000546FCF783FC594C2078401CC0B220702E
:103A4000012801D1FFF77EFBFCF788FC2846FCF734
:103A500071FB0EB9524806680020524FC6F84090DC
:103A6000A8F8000096F8360046F6C55A082872D223
:103A7000DFE800F033332F2F33332F2FFCF76EFCAA
:103A80002846FCF757FBFFF73BFB04E0FCF766FC1E
:103A90002846FCF74FFBA8F800A00020BDE8F88FEF
:103AA0006D1C7564FCF742FB0646FCF747FC20786A
:103AB000401E10F0FF00207047D1FFF751FB3888FF
:103AC000F0B3FCF74BFC3046FCF734FBFFF718FB78
:103AD00062E096F83400072813D0756C681CDFD1BB
:103AE000FCF724FB0546FCF729FC2078401E10F06B
:103AF000FF002070CAD1FFF733FB38880028C5D0FB
:103B0000BCE700231A4631461846CDF80090FFF76F
:103B100020F9756CFCF70AFB0646FCF70FFC2078D1
:103B2000401E10F0FF00207001D1FFF719FBFCF7D9
:103B300015FC3046FCF7FEFA5FEA0B402CD401E09E
:103B400003E008E0FDF756FD26E0FCF707FC3046F1
:103B5000FCF7F0FA20E0FCF7E9FA0546FCF7EEFB8B
:103B60002078401E10F0FF0020700BD1FFF7F8FA0C
:103B7000388838B1FCF7F2FB2846FCF7DBFAFFF790
:103B8000BFFA04E0FCF7EAFB2846FCF7D3FA46F656
:103B90002D60A8F80000002528467FE7A800002037
:103BA000140100206C0000202DE9F0410D46044670
:103BB000FCF7BCFA0746FCF7C1FB334804B90468BC
:103BC000016832488C4209D1017839B1FCF7C6FB53
:103BD0003846FCF7AFFA46F6635052E000212980E0
:103BE00094F836100126082944D2DFE801F00431A8
:103BF00033393B3B3B3B05460078401CC0B2287044
:103C0000012801D1FFF79EFAFCF7A8FB3846FCF724
:103C100091FA042084F8360084F886602046FFF785
:103C200045FAFCF783FA0446FCF788FB2878401E27
:103C300010F0FF01297001D1FFF792FAFCF78EFB1B
:103C40004FEA0400FCF776FABDE8F041FDF7D2BC7C
:103C5000052000E0062084F8360084F8866005E040
:103C60000720F8E714F8860F401C2070FCF776FB5D
:103C70003846E7E7FCF772FB3846FCF75BFA46F696
:103C80002D602880BDE8F08114010020A8000020EC
:103C900030B50368002433B94C618A64C1E9064039
:103CA000016001210FE09D6C954216D39D694B6127
:103CB0008A6455B1C1E906509C6CA21A9A64996154
:103CC00069618188491C818030BDC1E906409C6CD6
:103CD000A21A9A6499610160F3E7521B1D465B6961
:103CE000002BE0D14C618A64C1E90650E8E700008E
:103CF000F0B51C461B4BDFF868C000251B6847F277
:103D00007E26042A04D0082A08D029B10A4614E0E5
:103D1000CA1A624500D882B985641EE0D0F84CE02A
:103D2000A3EB0E078F4202D90A46991804E0CA1B7A
:103D300062450BD852B17144C164012180F836103C
:103D400001460948FFF7A4FF2580F0BDB7FBF1F25B
:103D500001FB02E21144C0E912512680F0BD0000CF
:103D60000000FFFFE0000020E800002030B5D0E9AF
:103D70000524C369002174B1626122B19461946C1D
:103D8000856C2C44946481619A88521E9A804161AA
:103D90008164C16130BD32B19161946C856C2C44F9
:103DA00094641A60F0E719609980F1E770470000A9
:103DB0002DE9F047FCF7BAF90446FCF7BFFADFF843
:103DC000C88098F80000401CC2B288F80020012A80
:103DD00001D1FFF7B7F9FCF7C1FA2046FCF7AAF9C1
:103DE000FCF706FB294D074600262C6814B3A06C8F
:103DF000B146401E4FF0040AA06418E0761C94F807
:103E00003600B6B2012802D0052806D007E084F8B3
:103E100036902046FFF7E2F801E084F836A06469A6
:103E20002C60CCB1A888401EA880C4F81890A06C63
:103E30000028E3D0EE80FCF7DBFAC41BFCF776F930
:103E40000546FCF77BFA98F80000401E10F0FF00D2
:103E500088F8000003D00FE0A5F80490EAE7FFF728
:103E60007FF90B48008838B1FCF778FA2846FCF750
:103E700061F9FFF745F904E0FCF770FA2846FCF712
:103E800059F92046BDE8F087A8000020E80000208E
:103E90006C0000202DE9F047FCF748F90446FCF7D8
:103EA0004DFADFF8FC9099F80000401CC2B289F886
:103EB0000020012A01D1FFF745F9FCF74FFA20460F
:103EC000FCF738F9FCF794FA364D074600262C68C3
:103ED000DCB3A06C4FF0030A401EB046A06431E092
:103EE000761C94F83600B6B2032802D0072810D00A
:103EF00020E0C4F85880A4F85C80FCF779FA2064CC
:103F00002046FEF7F8FE2046FFF768F884F8368072
:103F10000CE0C4F85880A4F85C80FCF769FA2064CF
:103F20002046FEF7E8FE042084F8360084F835A029
:103F300084F8348064692C60CCB1A888401EA880C5
:103F4000C4F81880A06C0028CAD0EE80FCF750FAA4
:103F5000C41BFCF7EBF80546FCF7F0F999F80000F4
:103F6000401E10F0FF0089F8000003D00FE0A5F814
:103F70000480EAE7FFF7F4F80B48008838B1FCF753
:103F8000EDF92846FCF7D6F8FFF7BAF804E0FCF79D
:103F9000E5F92846FCF7CEF82046BDE8F08700009A
:103FA000A8000020F00000206C0000201CB5274C69
:103FB000274D00216B4601AA0846FDF7F3FEBDF828
:103FC00000000028F5D1234800780128F1D1FCF742
:103FD000ADF80646FCF7B2F92078401CC0B220705C
:103FE000012801D1FFF7AEF8FCF7B8F93046FCF72D
:103FF000A1F819480168491C0160FCF797F80646CA
:10400000FCF79CF92078401E10F0FF0020700CD1C6
:10401000FFF7A6F81148008838B1FCF79FF9304641
:10402000FCF788F8FFF76CF804E0FCF797F93046E6
:10403000FCF780F8FFF7BCFE0646FFF72BFF296868
:1040400030448142B5D22860B3E70000A8000020C8
:10405000E400002060000020E00000206C00002050
:1040600030B51D4A89B0002111601C4A1C4B1160FB
:1040700019609180D1801B4A9980D980136843B11F
:10408000194B1A4D1C682D68AC4205D247F213211A
:1040900008E047F2122105E0154C25781F2D04D3C6
:1040A00047F21121018009B030BD0B250591069121
:1040B000CDE9075018680F4B12681B68CDE9030162
:1040C000CDE901232078009000230B4A0BA1104872
:1040D000FDF768FCE7E70000E0000020E8000020B2
:1040E000F0000020C4480008CC480008B848000888
:1040F000C0480008C8480008AD3F000875432F4F6E
:10410000532D494949205469636B205461736B00F6
:10411000A848002030B50546294889B0002404602D
:1041200028482A492A4A04602748048029480B68FD
:104130001BB11268B2FBF3F103E011680A22B1FB74
:10414000F2F10160084624492A460860234825A167
:104150000460234804602748FCF7E8FF288800280B
:1041600015D12548016841B12449254B0A681B68CF
:104170009A4205D247F2483008E047F2473005E05E
:10418000204A13781F2B04D347F24630288009B009
:1041900030BD0B23CDE906431B4B089505941B68E6
:1041A00009680068CDE90103CDE903141078009097
:1041B0000023164A16A11C48FDF7F4FBE7E70000B0
:1041C000F800002000010020FC000020D448000876
:1041D000BC4800080C01002010010020080100204C
:1041E000040100204F5320546D72204D7574657882
:1041F000000000006C490020D8480008E048000892
:10420000B8480008D0480008DC48000849420008C7
:1042100075432F4F532D4949492054696D657220CC
:104220005461736B00000000984900200EB501A88E
:104230000022009002AB11460148FCF7CFFF0EBDF3
:104240006C490020704700001CB5DFF88880DFF85B
:104250008890DFF888A000216B4601AA0846FDF788
:10426000A1FDFFF7E3FFFCF7C3F8D8F800100646FE
:10427000491CC8F800100327D9F8004018E0684628
:10428000FDF7F2F9A0692569401EA0610CD1A08C50
:1042900002281BD0204600F023F884F82670A2687C
:1042A00012B12046E16890472C466846FDF736FA81
:1042B000002CE4D1FCF79CF8841B00F02FF8DAF80E
:1042C0000010A142C7D2CAF80040C4E7206AA0612A
:1042D000E5E70000080100200001002004010020A3
:1042E0000C4B10B51C6800220169844203D119608F
:1042F00029B14A6103E04369196101B14B610121B0
:1043000080F826100449026142610888401E088036
:1043100010BD000000010020FC00002008B56A4626
:1043200000210248FDF772F808BD00006C4900202A
:10433000704730B58FB028216846FBF714FF142171
:104340000AA8FBF710FF01210804CDE900100024A2
:10435000029402250491CDE907504FF4E010099032
:104360006846FCF7ADFA0F20CDE90A056802CDE9F1
:104370000C4002210AA80E94FCF7C0F90FB030BD22
:10438000704701680C3151E8002F22F4907241E827
:104390000023002BF5D10168143151E8002F22F0E1
:1043A000010241E80023002BF5D1016B012909D15D
:1043B00001680C3151E8002F22F0100241E800237F
:1043C000002BF5D1202180F84210002101637047B5
:1043D00070B5044600680169E26821F44051114358
:1043E00001612169A0680843616908432168CA68BE
:1043F00041F20C639A430243CA6020684169A26992
:1044000021F44071114341611E492068884202D164
:10441000FCF720FA01E0FCF70DFA00EBC00101EB1C
:104420000012606864218000B2FBF0F3B3FBF1F38B
:104430006FF018067343B2FBF0F5B2FBF0F605EB34
:104440008305322303EB0515B5FBF1F5B6FBF1F659
:1044500005F0F00505EB0615B2FBF0F6B2FBF0F047
:10446000B0FBF1F06FF01802504306EB800003EB55
:104470000010B0FBF1F0216800F00F0028448860C4
:1044800070BD0000003801402DE9F84398461746FA
:104490000D460446089E24E0701C22D0FCF7A6F8C6
:1044A000A0EB0800B0421AD8CEB12068C168490715
:1044B00017D5802D15D0402D13D00168C9430907A9
:1044C0000FD401680025406800902046FFF759FF8F
:1044D0000820606484F840500120BDE8F883032080
:1044E000FBE72068006835EA000004D00020B842ED
:1044F000D2D00020F1E70120F9E7FEE7014A0249A6
:1045000000F023B86D4500081C0100200907090EC2
:10451000002804DB00F1E02080F80014704700F070
:104520000F0000F1E02080F8141D704702E008C879
:10453000121F08C1002AFAD170477047002001E01D
:1045400001C1121F002AFBD170472DE9F041164628
:104550000F460446002503E03946B047641C6D1C35
:1045600020780028F8D12846BDE8F08113B54FF631
:10457000FF73012269460248FCF7B0FB00981CBD9E
:10458000B00800200EB5FBF757FEFBF76DFEFCF7F9
:1045900065FC02A8FDF7A4F9FBF7B2FE0E4E00255C
:1045A00002AC002208213046FCF71AF80023CDE9BE
:1045B0000054032219461846FDF70CFE012208217B
:1045C0003046FCF70DF80023CDE9005403221946CC
:1045D0001846FDF7FFFDE4E7000801400EB5FBF7C4
:1045E0002BFEFBF741FEFCF739FC02A8FDF778F93A
:1045F000FBF786FE0F4F002502AC4FF40056002259
:1046000031463846FBF7ECFF0023CDE90054012288
:1046100019461846FDF7DEFD012231463846FBF704
:10462000DFFF0023CDE90054012219461846FDF7AB
:10463000D1FDE4E70010014010B58AB009A8FCF7ED
:104640005FFCFBF7D9FFFFF774FEFCF7E5FB0020EA
:1046500006AB09AA0321059083E80700602209231D
:10466000094CCDE90232CDE9001404900346074A13
:1046700007A104F59060FDF795F909A8FDF788F802
:104680000AB0002010BD000020010020F9460008FB
:104690007374617274207461736B00000EB5FBF764
:1046A000CBFDFBF7E1FDFCF7D9FB02A8FDF718F9FC
:1046B000FBF726FE002402AD05A0FFF71FFF002335
:1046C000022219461846CDE90045FDF783FDF3E7C0
:1046D00068656C6C6F2075632F4F532120BBB6D378
:1046E000ADC0B4B5BD52544F53B6E0C8CECEF1BB49
:1046F000B7BEB3200D0A00002DE9F0438BB0FBF7E5
:104700009BFD09A8FDF7ECF8FBF7FAFD012109AACA
:104710000846FCF7D7FFFBF709FD0446FBF70EFE42
:10472000DFF8E09099F80000401CC2B289F8002040
:10473000012A01D1FEF706FDFBF710FE2046FBF72C
:10474000F9FC00244FF00308CDE9064809AE2E48D5
:1047500001A94027062508960594049481E8A10044
:10476000042000902346294A29A12C48FDF71AF974
:10477000CDE906482A4801A908960594049481E8E1
:10478000A1000023274A28A100F553700095FDF7EA
:1047900009F9CDE90648264801A90896059404942C
:1047A00081E8A100052000901C480023214A22A195
:1047B000C430FDF7F7F8194809A9C438FFF7F4F930
:1047C000FBF7B4FC0446FBF7B9FD99F80000401E66
:1047D00010F0FF0289F800200ED1FEF7C1FC194845
:1047E000008848B1FBF7BAFD2046FBF7A3FCFEF7B3
:1047F00087FC0BB0BDE8F083FBF7B0FD2046FBF76C
:1048000099FCF6E7A8000020A0020020DD45000882
:104810006C65645F70633133000000006406002043
:10482000A0040020854500086C65645F706133005A
:10483000A00300209D46000873656E645F6D73677A
:10484000000000006C0000200102020304050607BE
:1048500008090A0B0C0D0E0F1010000000000000DC
:10486000000001020304060708090000000001021D
:1048700003040000503100200C0000008000000004
:10488000503300200A000000903400200C0000008B
:1048900080000000903600208000000064000000CE
:1048A000903800200B0000000A000000D03E0020DD
:1048B0000C0000008000000040000000E803000041
:1048C0000A000000D04000200C0000008000000022
:1048D0000B0000000A000000D04200200C00000085
:1048E00080000000044900080000002020010000B2
:1048F0002C450008244A000820010020404D0000FB
:104900003C4500080100000010000000000000000D
:1049100000127A000000000000000000000000000B
:104920000000000000000000000000000000000087
:104930000000000000000000000000000000000077
:104940000000000000000000000000000000000067
:104950000000000000000000000000000000000057
:104960000000000000000000000000000000000047
:104970000000000000000000000000000000000037
:104980000000000000000000000000000000000027
:104990000000000000000000000000000000000017
:1049A0000000000000000000000000000000000007
:1049B00000000000000000000000000000000000F7
:1049C00000000000000000000000000000000000E7
:1049D00000000000000000000000000000000000D7
:1049E00000000000000000000000000000000000C7
:1049F00000000000000000000000000000000000B7
:104A000000000000000000000000000000000000A6
:104A10000000000000000000000000000000000096
:044A20000000000092
:04000005080000ED02
:00000001FF
