:020000040800F2
:100000002008002001010008090100080B01000878
:100010000D0100080F010008110100080000000098
:1000200000000000000000000000000013010008B4
:100030001501000800000000170100081901000860
:100040001B0100081B0100081B0100081B01000820
:100050001B0100081B0100081B0100081B01000810
:100060001B0100081B0100081B0100081B01000800
:100070001B0100081B0100081B0100081B010008F0
:100080001B0100081B0100081B0100081B010008E0
:100090001B0100081B0100081B0100081B010008D0
:1000A0001B0100081B0100081B0100081B010008C0
:1000B0001B0100081B0100081B0100081B010008B0
:1000C0001B0100081B0100081B0100081B010008A0
:1000D0001B010008F90300081B0100081B010008B0
:1000E0001B0100081B0100081B010008DFF80CD0F1
:1000F00000F018F800480047AD050008200800206F
:100100000648804706480047FEE7FEE7FEE7FEE7B1
:10011000FEE7FEE7FEE7FEE7FEE7FEE799030008DD
:10012000ED000008064C074D06E0E06840F00103D2
:1001300094E8070098471034AC42F6D3FFF7DAFF93
:1001400098060008B80600082DE9F041024600258F
:100150000026002000230024002791F803C00CF0A3
:100160000F0591F803C00CF0100CBCF1000F03D088
:1001700091F802C04CEA050591F800C0BCF1000FEF
:1001800031D0146800202BE04FF0010C0CFA00F382
:10019000B1F800C00CEA03069E4220D183004FF064
:1001A0000F0C0CFA03F7BC4305FA03FC4CEA0404F9
:1001B00091F803C0BCF1280F06D14FF0010C0CFAE6
:1001C00000FCC2F814C00AE091F803C0BCF1480F6B
:1001D00005D14FF0010C0CFA00FCC2F810C0401C15
:1001E0000828D1D31460B1F800C0BCF1FF0F34DD92
:1001F000546800202EE000F1080C4FF0010808FAC6
:100200000CF3B1F800C00CEA03069E4221D1830032
:100210004FF00F0C0CFA03F7BC4305FA03FC4CEA51
:10022000040491F803C0BCF1280F05D100F1080CBB
:1002300008FA0CF8C2F8148091F803C0BCF1480F1A
:1002400007D100F1080C4FF0010808FA0CF8C2F8C9
:100250001080401C0828CED35460BDE8F081416175
:10026000704701617047000029B1064A9269024354
:10027000044B9A6104E0034A92698243014B9A61FC
:10028000704700000010024010B500F001F810BDEA
:100290000CB50020019000903348006840F4803095
:1002A0003149086000BF3048006800F40030009019
:1002B0000198401C0190009818B90198B0F5A06F02
:1002C000F1D12948006800F4003010B101200090FD
:1002D00001E0002000900098012843D123480068E5
:1002E00040F01000214908600846006820F0030033
:1002F00008600846006840F0020008601A4840683C
:10030000194948600846406848600846406840F41B
:10031000806048600846406820F47C1048600846C9
:10032000406840F4E81048600846006840F080707B
:10033000086000BF0C48006800F000700028F9D089
:100340000948406820F003000749486008464068B3
:1003500040F00200486000BF0348406800F00C0015
:100360000828F9D10CBD0000001002400020024016
:10037000042808D14FF0E021096941F004014FF051
:10038000E022116107E04FF0E021096921F004014A
:100390004FF0E0221161704710B51348006840F03B
:1003A00001001149086008464068104908400E499C
:1003B0004860084600680E4908400B490860084636
:1003C000006820F4802008600846406820F4FE00A1
:1003D00048604FF41F008860FFF756FF4FF0006041
:1003E0000449086010BD0000001002400000FFF842
:1003F000FFFFF6FE08ED00E008B540F22551174872
:1004000000F043F8012810D1144800F068F8C1B298
:10041000134802880088401C114B188011488154F1
:1004200040F225510D4800F021F840F224410B48DC
:1004300000F02BF801280FD10848008800900748E9
:10044000001D0088009000200649054A1288885443
:1004500001200549087000BF08BD000000380140B8
:10046000140000201C0000201600002010B50022FF
:10047000002340F66A14A14200D100BF0A120124F1
:100480009440A3B2DC43048010BD70B50246002442
:1004900000230025002040F66A16B14200D100BFBB
:1004A000C1F3421501F01F03012606FA03F3012DE3
:1004B00002D19689334006E0022D02D1168A3340DC
:1004C00001E0968A33400C12012606FA04F41688DD
:1004D000344013B10CB1012000E0002070BD014692
:1004E0008888C0F30800704702E008C8121F08C1DE
:1004F000002AFAD170477047002001E001C1121FA5
:10050000002AFBD17047000010B56FF00400FFF720
:100510002FFF044800680449B0FBF1F0034908606C
:1005200010BD00000000002000127A00180000201A
:1005300010B504464FF47A7104FB01F000F002F8A4
:1005400010BD000010B5184B1B6800FB03F201281A
:1005500005D1A2F108034FF0E024636104E0A2F1A9
:100560000A034FF0E024636100234FF0E024A3610D
:1005700023461B6943F00103236100BF4FF0E023D2
:10058000196901F001031BB101F48033002BF5D090
:100590004FF0E0231B6923F001034FF0E0242361B7
:1005A0000023A36110BD00001800002008B5FFF76C
:1005B000ABFF01211C20FFF757FE4FF40050ADF8B0
:1005C000000010208DF8030001208DF8020069461C
:1005D0002E48FFF7B9FD4FF48070ADF80000694672
:1005E0002B48FFF7B1FD4FF48040ADF8000069469D
:1005F0002848FFF7A9FD4FF400512448FFF731FECA
:100600004FF480712248FFF72CFE4FF480412148BF
:10061000FFF727FE38E04FF400511C48FFF71FFE9C
:100620004FF480711A48FFF71CFE4FF480411948BF
:10063000FFF717FE4FF47A70FFF77AFF4FF400517F
:100640001248FFF70EFE4FF480711148FFF707FEC6
:100650004FF480410F48FFF704FE4FF47A70FFF724
:1006600067FF4FF400510948FFF7FBFD4FF480711D
:100670000748FFF7F6FD4FF480410648FFF7EFFD0E
:100680004FF47A70FFF754FFC5E7000000100140F7
:1006900000080140000C0140B806000800000020DE
:1006A0001C000000E8040008D40600081C0000201C
:1006B00004080000F804000800A24A04000000003A
:1006C0000000000001020304060708090000000002
:0406D0000000000026
:04000005080000ED02
:00000001FF
