:020000040800F2
:10000000980B00209101000823150008D711000863
:1000100021150008D5040008A11600080000000002
:10002000000000000000000000000000271500088C
:10003000D704000800000000251500082915000855
:10004000AB010008AB010008AB010008AB010008E0
:10005000AB010008AB010008AB010008AB010008D0
:10006000AB010008AB010008AB010008AB010008C0
:10007000AB010008AB010008AB010008AB010008B0
:10008000AB010008AB010008AB010008AB010008A0
:10009000AB010008AB010008AB010008AB01000890
:1000A000AB010008AB010008AB010008AB01000880
:1000B000AB010008AB010008AB010008AB01000870
:1000C000AB010008AB010008AB010008AB01000860
:1000D000AB010008AB010008AB010008AB01000850
:1000E000AB010008AB010008AB01000800F002F80A
:1000F00000F03FF80AA090E8000C82448344AAF183
:100100000107DA4501D100F034F8AFF2090EBAE880
:100110000F0013F0010F18BFFB1A43F0010318473B
:10012000788E0000988E0000103A24BF78C878C1FD
:10013000FAD8520724BF30C830C144BF04680C60ED
:10014000704700000023002400250026103A28BF35
:1001500078C1FBD8520728BF30C148BF0B60704739
:10016000642900F07D80002070471FB51FBD10B5C9
:1001700010BD00F074F91146FFF7F7FF01F022FB04
:1001800000F092F903B4FFF7F2FF03BC00F09CF912
:100190000948804709480047FEE7FEE7FEE7FEE71B
:1001A000FEE7FEE7FEE7FEE7FEE7FEE70448054957
:1001B000054A064B704700008B150008ED0000084B
:1001C00098050020980B0020980700209807002031
:1001D0000FB41CB5074B06AA7B44694600900598EE
:1001E00000F025F90020694600F034F91CBC5DF8E8
:1001F00014FB0000790200002DE9F0410E46044690
:10020000002020622046E168884730B3252805D0C9
:10021000D4E901219047206A401CF2E7E1682046BA
:1002200000278847050018D0A5F14100192802D8F9
:1002300020354FF400673246294620462760FFF7F5
:100240008FFF40B1012804D0F61D26F007060836BE
:10025000D8E7361DD6E72846DAE7206ABDE8F08100
:100260002DE9F0410646002410687529314616A58F
:1002700010D0AFF30080002802DA404213A507E057
:1002800031688A0701D512A502E0490704D511A5F6
:10029000012401E0AFF3008000210A2206F12407C7
:1002A00009E0B0FBF2FCB0FBF2F302FB1C003030C3
:1002B00078541846491C0028F3D123462A46304674
:1002C000BDE8F04100F054B8000000002D0000002F
:1002D0002B000000200000004FF000020429C0F0B5
:1002E000128010F0030C00F01B80CCF1040CBCF168
:1002F000020F18BF00F8012BA8BF20F8022BA1EBBA
:100300000C0100F00DB85FEAC17C24BF00F8012B9E
:1003100000F8012B48BF00F8012B70474FF0000296
:1003200000B5134694469646203922BFA0E80C50EB
:10033000A0E80C50B1F12001BFF4F7AF090728BFC6
:10034000A0E80C5048BF0CC05DF804EB890028BF42
:1003500040F8042B08BF704748BF20F8022B11F06B
:10036000804F18BF00F8012B7047704770477047E7
:100370002DE9F0470D4699469246044600F12408BF
:100380000168880604D5E06921F01001216000E0D1
:100390000120A84201DD471B00E00027A1697A196E
:1003A00002EB0900081AA0612078C00602D420469A
:1003B000AFF30080002608E0D4E901211AF8060016
:1003C0009047206A401C761C20624E45F4DB207862
:1003D000C0060AD52046AFF3008006E0D4E901212B
:1003E00030209047206A401C2062381EA7F1010788
:1003F000F4DC07E0D4E9012118F805009047206AF1
:10040000401C2062281EA5F10105F3DC2046AFF355
:1004100000802078000602D50220BDE8F087012088
:10042000FBE7000001694A1C02610878704700B5CB
:100430008FB0CDE901310021059105497944CDE91D
:10044000031011466846FFF7D7FE0FB000BD00004D
:10045000E5FFFFFF0A6802F8010B0A607047754666
:1004600000F02CF8AE4605006946534620F0070020
:10047000854618B020B5FFF799FEBDE820404FF043
:1004800000064FF000074FF000084FF0000B21F07E
:100490000701AC46ACE8C009ACE8C009ACE8C0094B
:1004A000ACE8C0098D46704710B50446AFF3008034
:1004B0002046BDE81040FFF765BE000000487047C9
:1004C000340500207047000001491820ABBEFEE74C
:1004D00026000200FEE7704772B6FEE770B50446DC
:1004E00000F0FEF80546601C02D004480078044481
:1004F00000F0F6F8401BA042FAD370BD00000020C7
:100500002DE9F84FDFF8B891002409F1040A0AF147
:10051000040B23460F270BF1040EC9E00125A5406B
:100520002A40AA427DD1674ED1F804C0ACEB060840
:10053000B44532D014DCBCF1030F3AD009DCBCF175
:10054000000F2AD0BCF1010F1CD0BCF1020F31D139
:100550001DE0BCF1110F17D0BCF1120F2AD119E028
:10056000B8F5881F19D006DCB8F5803F15D0B8F56E
:10057000801F1FD111E0B8F5001F0ED0B8F5041F81
:1005800018D10AE0CB6815E0CB681B1D12E0CB68E0
:1005900008330FE0CB680C330CE08B682BB1012BD8
:1005A0004FF0080303D0456104E0042302E0056135
:1005B00000E00023FF2A01D8064601E000F104060E
:1005C0004FEA840501D9A5F12005D6F8008007FA85
:1005D00005FC28EA0C0803FA05F548EA0508C6F800
:1005E00000804D68ED0062D5374DAE6946F00106DA
:1005F000AE61AD6924F0030605F001050095334DA9
:1006000006EB050CDCF80850A607360F07FA06F8CB
:1006100025EA0805DFF8B880404503D14FF000080F
:1006200017E044E0DFF8AC80404502D14FF001080C
:100630000FE0DFF8A480404502D14FF0020808E047
:10064000DFF89880404502D14FF0030801E04FF0F9
:10065000040808FA06F848EA0508CCF808804D684E
:10066000D9F80060ED034D4601D5164300E09643EE
:100670002E604D68DAF80060AD03554601D516438B
:1006800000E096432E604D68DBF80060ED025D46A9
:1006900001D5164300E096432E604D68DEF80060F9
:1006A000AD02754601D5164300E096432E60641CEA
:1006B0000D682A46E5407FF431AFBDE8F88F0000B1
:1006C0000004014000001110001002400000014031
:1006D00000080140000C01400010014000140140DE
:1006E00001488068704700000000002070B50400D9
:1006F00025D094F83D00002520B984F83C502046D0
:1007000000F04EF9242084F83D002068016821F0B3
:10071000010101602068016841F400410160206826
:10072000016821F40041016000F08AFA4D4A6168D5
:10073000914201D84C4900E04C49884201D2012045
:1007400070BD4B492368B0FBF1F15E6826F03F06AF
:100750000E435E606368934206D94FF49673594323
:100760004FF47A73B1FBF3F12368491C1E6A26F03B
:100770003F06314319626168914210D84900401E1A
:10078000B0FBF1F2521CC2F30B02042A01D2042086
:1007900022E0B0FBF1F0401CC0F30B001CE0A268AB
:1007A000F2B301EBC10303EB0116431EB3FBF6F3F7
:1007B0005B1C43F480431B0549D092B301EBC1029B
:1007C00002EB0111401EB0FBF1F0401CC0F30B0026
:1007D00040F4804040F400402168CA694CF6FF7341
:1007E0009A431043C861D4E90710014320680268A6
:1007F00022F0C00211430160D4E9030101432068E3
:10080000826848F2FF339A4311438160D4E90501BD
:1008100008432168CA6822F0FF021043C86001E063
:100820000EE016E02068016841F0010101602564D6
:10083000202084F83D00256384F83E50002070BDE0
:1008400001EB4106431EB3FBF6F35B1CB3E701204B
:10085000C2E701EB4101401EB0FBF1F0401CC0F3C8
:100860000B00B7E7A086010080841E0000093D0050
:1008700040420F002DE9F84F1F4690468A46044635
:10088000DDF82890FFF72CFF054694F83D0020285E
:100890007FD11923012240492046009500F028FD10
:1008A000002876D194F83C00012872D0012084F809
:1008B0003C0020680168C90703D1016841F00101CB
:1008C00001602068016821F400610160212084F842
:1008D0003D00102084F83E0000262664C4F82480E1
:1008E0006785608D20852D48E0622B464A4651463B
:1008F000204600F089FC90B9206841698069009029
:1009000036E02A464946204600F071FD50B1206C81
:10091000042804D12068016841F4007101600120BD
:10092000BDE8F88F606A216800780861606A401C41
:100930006062618D491E6185218D491E89B22185C4
:1009400022685369DB435B070BD451B10078106117
:10095000606A401C6062608D401E6085208D401E74
:1009600020852A464946204600F09CFC0028CED12E
:10097000208D0028C5D154F83D0B016841F4007169
:100980000160202004F81E09E67766770020C7E79B
:10099000FFE70220C4E70000020010000000FFFF94
:1009A00010B586B000210091019102910391006879
:1009B000104988421BD1104CA06940F00800A0618A
:1009C000A069694600F0080004904FF44060009070
:1009D00012200190032003900848FFF791FDE06981
:1009E00040F48000E061E06900F48000049006B00B
:1009F00010BD00000058004000100240000C0140F3
:100A0000024881680278114481607047000000202C
:100A1000074810B5016841F010010160032000F0A3
:100A200067F80F2000F006F800F024F8002010BD51
:100A30000020024070B50D4D04464FF47A712878BD
:100A4000B1FBF0F00A490968B1FBF0F000F0CEFA12
:100A500048B9102C07D200222146501E00F028F879
:100A600000206C6070BD012070BD000000000020FF
:100A70000C0000200C4808B5816941F0010181613A
:100A8000816901F001010091C16941F08051C161AA
:100A9000C06900F0805000900448416821F0E06196
:100AA00041F00071416008BD0010024000000140AB
:100AB000F0B40E4B1B680C46C3F30223C3F10705C9
:100AC000042D00D90425191D072901D2002300E0B7
:100AD000DB1E012606FA05F1491E214099409E4081
:100AE000761E16403143F0BC00F0DBBD0CED00E09B
:100AF000064900F0070208684FF6FF03184040EA75
:100B00000220034A10430860704700000CED00E02B
:100B10000000FA052DE9F0470F46050061D0434E6D
:100B2000306800F00700B84209D2306820F00700B2
:100B300038433060306800F00700B84251D128686F
:100B40003B4C810712D5400703D5606840F4E06054
:100B500060602878000703D5606840F460506060EA
:100B60006068A96820F0F000084360602878C0073A
:100B700028D06868012810D02168022810D0890781
:100B800000292EDA616821F0030101436160FFF75B
:100B9000A7FD804641F288390DE021688903EFE71F
:100BA0008901EDE7FFF79CFDA0EB0801494502D95B
:100BB0000320BDE8F0876068696800F00C00B0EBC6
:100BC000810FEFD1306800F00700B8420BD93068D0
:100BD00020F0070038433060306800F00700B8426A
:100BE00001D00120E5E72878400705D56068E9686D
:100BF00020F4E060084360602878000706D560684C
:100C0000296920F4605040EAC100606000F028F8D3
:100C10006168084AC1F30311515CC8400649086085
:100C200006480068FFF706FF0020C2E700200240E8
:100C300000100240D03800080C0000200400002002
:100C40000448054900684968044AC1F30221515C1F
:100C5000C84070470C00002000100240E038000837
:100C600012A185B00FC98DE80F0014A0144A0068C6
:100C700004905168134801F00C03042B10D0082B8A
:100C80000ED1C1F38343C9031DF803000AD551688F
:100C900004AAC1F34041515C0A4A5043B0FBF1F051
:100CA00005B0704708494843FAE70000020304050D
:100CB000060708090A0B0C0D0E0F101001020000A8
:100CC0000010024000127A0000093D002DE9F84FA3
:100CD000040070D02078C04DC00749D06868C0F3C8
:100CE0008100012807D06868C0F38100022809D17B
:100CF0006868C00306D52868800339D56068002875
:100D0000E7D035E06068B0F5803F0BD010B1B0F5AA
:100D1000A02F11D0286820F480302860286820F4A3
:100D2000802002E0286840F480302860606890B13C
:100D3000FFF7D6FC06460AE0286840F480202860C9
:100D4000F0E700BFFFF7CCFC801B642873D828684D
:100D50008003F7D50CE0FFF7C3FC064605E000BFB3
:100D6000FFF7BEFC801B6428F0D828688003F7D406
:100D700020789A4E80074FF001094FF0000839D5CE
:100D8000686810F00C0F07D06868C0F38100022873
:100D900009D16868C00306D42868800714D5206983
:100DA000012808D110E02069B0B1C6F80090FFF723
:100DB00097FC074605E00AE1FFF792FCC01B0228FA
:100DC000C4D828688007F7D52868616920F0F80042
:100DD00040EAC10028600DE0C6F80080FFF780FC03
:100DE000074604E0FFF77CFCC01B022823D82868D4
:100DF0008007F7D4207800072CD57948A169D9B1AC
:100E0000C0F80090FFF76CFC074604E0FFF768FCB1
:100E1000C01B02280FD8686A8007F7D571484FF4C5
:100E2000FA510068B0FBF1F0009000BF0098411E3D
:100E30000091FAD20EE080E0C0F80080FFF750FC8D
:100E4000074604E0FFF74CFCC01B022875D8686A0F
:100E50008007F7D42078400760D5E8690027C000F4
:100E600008D4E86940F08050E861E869012700F0A3
:100E7000805000905C480168C90513D4016883461E
:100E800041F480710160FFF72BFC824606E000BF51
:100E9000FFF726FCA0EB0A0064284ED8DBF8000020
:100EA000C005F5D5E06801280AD008B1052813D09F
:100EB000286A20F001002862286A20F0040002E07D
:100EC000286A40F001002862E06841F2883B98B14E
:100ED000FFF706FC82460BE0286A40F00400286217
:100EE000EEE700BFFFF7FCFBA0EB0A0159455AD81B
:100EF000286A8007F6D50CE0FFF7F2FB824605E092
:100F0000FFF7EEFBA0EB0A0159454CD8286A800791
:100F1000F6D41FB1E86920F08050E861E06988B339
:100F20006968C1F38101022944D00228C6F86080B3
:100F300004D0FFF7D5FB044638E034E0FFF7D0FBE0
:100F4000074604E0FFF7CCFBC01B02282BD828681B
:100F50008001F7D4206AB0F5803F05D16868A168A8
:100F600020F4003008436860D4E908010843696848
:100F700021F4741108436860C6F86090FFF7B0FB75
:100F8000044606E025E000BFFFF7AAFB001B02288D
:100F900009D828688001F7D51BE000BFFFF7A0FB48
:100FA000001B022802D90320BDE8F88F28688001C1
:100FB000F4D40EE00128F7D06868226A00F480318A
:100FC000914204D1616A00F47010884201D001207E
:100FD000EAE70020E8E7000000100240000042427B
:100FE000800442420C0000200070004010B5401EFA
:100FF000B0F1807F01D3012010BD4FF0E02460618B
:101000000F21601700F04DFB0020A0610720206138
:10101000002010BD70B590F83C20012A26D0012494
:1010200080F83C40022280F83D2003685A689D68A1
:1010300022F070060A6832435A600D4B02689A42E9
:1010400008D0B2F1804F05D00A4B9A4202D00A4B29
:101050009A4204D1496825F080031943916080F8D1
:101060003D40002180F83C10084670BD022070BD54
:10107000002C0140000400400008004010B50400AE
:1010800003D094F83D0010B107E0012010BD00200E
:1010900084F83C00204600F01FF8022084F83D0050
:1010A000211D206800F072FA012084F8460084F8BF
:1010B0003E0084F83F0084F8400084F8410084F842
:1010C000420084F8430084F8440084F8450084F822
:1010D0003D00002010BD000008B5006806498842A8
:1010E00008D10648816941F400618161806900F49A
:1010F0000060009008BD0000002C0140001002407C
:1011000070B5044690F83C00012817D0012584F8FA
:101110003C50022084F83D002068826822F077026B
:1011200022F47F4282600868502830D00DDC2028ED
:101130004DD005DC98B310283BD148E0022070BDAB
:10114000302844D0402834D139E0602828D0702895
:1011500006D0B0F5805F2CD0B0F5005F29D10AE051
:10116000CB68D1E90121206800F046FA2068816847
:1011700041F0770109E0CB68D1E90121206800F056
:101180003BFA2068816841F48041816011E0CA68BF
:101190004968206800F042FA5021206807E016E014
:1011A000CA684968206800F04AFA6021206800F0A7
:1011B0002DFA84F83D50002084F83C0070BDCA68C8
:1011C0004968206800F02AFA40212068EFE7226889
:1011D00001461046EBE7FEE701684A69D243520533
:1011E0000FD46FF480624A61002140F8301F202242
:1011F00042738173026942F00402026101730120AB
:101200007047002070470000F8B50446C06A1E46CB
:101210000D461746082807D0012805D010F5803F55
:1012200002D0206B122804D12068016841F480713B
:101230000160134600224FF001112046009600F095
:1012400057F840B120680068C00502D54FF400701F
:1012500020640320F8BD2069B0F5804F0ED0062031
:10126000216800EAD51040F0F000086133463A46A4
:101270000B49204600F070F878B902E005F0FE0056
:1012800000E0E8B221680861054933463A46891F03
:10129000204600F061F80028DCD00120F8BD0000F5
:1012A0000800010070B516460D4604460DE02046C4
:1012B000FFF792FF08B1012070BD681C05D0FFF751
:1012C0000FFA801BA84207D835B120684069C04397
:1012D0004007ECD4002070BD002044F8300F2021DE
:1012E0006173A073216941F0200121612073E2E75D
:1012F0002DE9F0471E4690460D460446C1F30747C8
:10130000DDF8209008E0701C06D0FFF7E9F9A0EBAB
:101310000900B0420FD876B12068012F18D080693B
:1013200025EA00000004000C14D000214145EAD059
:101330000020BDE8F087002044F8300F20216173C1
:10134000A073216941F02001216120730120F0E7A1
:101350004069E5E70121E9E72DE9F0479A46914622
:101360000E46044600254FF02008C1F3074725E04C
:1013700020684069C043400514D42068016841F4E6
:101380000071016021686FF480604861256384F812
:101390003D8084F83E50206C40F00400206484F8C6
:1013A0003C501FE0B9F1FF3F08D0FFF799F9A0EBDF
:1013B0000A0149450CD8B9F1000F09D02068012F66
:1013C00013D0806926EA00000004000C0BD0CFE7A0
:1013D00044F8305F84F80D80A573206940F0200048
:1013E000206125730120BDE8F0874069EAE770B508
:1013F00016460D4604460DE02046FFF7EDFE08B107
:10140000012070BD681C05D0FFF76AF9801BA84257
:1014100007D835B120684069C0430006ECD40020ED
:1014200070BD002044F8300F20216173A073216942
:1014300041F0200121612073E2E700000D4808B56A
:10144000816941F020018161816901F020010091F1
:10145000816941F008018161816901F00801009111
:10146000816941F004018161806900F0040000900D
:1014700008BD0000001002400D4810B50B49016086
:101480000C49416000214FF480428160C0E90312A1
:1014900041618161C1610162FFF728F9002803D031
:1014A000BDE81040FFF718B810BD0000005800401C
:1014B00018000020A086010010B586B0002417484F
:1014C00000940194029403940494134905940160D8
:1014D0004721C0E901144FF6FF71C0E903144461CC
:1014E0008461FFF7CBFD08B1FEF7F6FF4FF48050A3
:1014F000009069460948FFF703FE08B1FEF7ECFFCC
:10150000049404A905480594FFF784FD002801D040
:10151000FEF7E2FF06B010BD002C01406C00002079
:10152000FEE7FEE770477047FFF76ABA30B58FB045
:1015300028216846FEF7F2FE14210AA8FEF7EEFE07
:1015400001210804CDE90010002402940225049131
:10155000CDE907504FF4E01009906846FFF7B6FB5D
:1015600008B172B6FEE70F20CDE90A054FF480609E
:10157000CDE90C4002210AA80E94FFF7CBFA00280F
:1015800001D072B6FEE70FB030BD7047F0B502680B
:10159000164B174C174D4FF08047984205D0B84274
:1015A00003D0A04201D0A84203D122F070064A68BD
:1015B0003243984205D0B84203D0A04201D0A8429D
:1015C00003D122F44074CA6822434C6922F080029D
:1015D000224302608A68C2620A688262984201D12C
:1015E0000969016301214161F0BD0000002C014047
:1015F000000400400008004010B5846842EA03225D
:1016000024F47F440A432243826010BD826822F0A2
:1016100070020A4342F007018160704710B5036A07
:10162000046A24F001040462846924F0F00444EAAA
:10163000021423F00A020A438461026210BD10B54D
:10164000036A23F0100303628369046A23F470437E
:1016500043EA023224F0A00343EA011182610162ED
:1016600010BD00000D4900220B685A620A68136819
:1016700043F00103136009684A6A8242FCD3086A96
:1016800041F21112104207D1086A9210104203D1A0
:10169000086820F001000860704700006C0000201E
:1016A000FEE70907090E002804DB00F1E02080F8BE
:1016B0000014704700F00F0000F1E02080F8141DC6
:1016C0007047000010B5044600F08CFA0121204656
:1016D00000F009FE0021204600F002FE2B492046C2
:1016E00000F0EEFD2AA314220021204600F058FD50
:1016F0000121204600F0F4FD2649204600F0E0FDDF
:1017000025A308221521204600F04AFD002120468D
:1017100000F0E6FD1D49204600F0D2FD1FA31E2269
:101720003321204600F03CFD1DA31E22432120460C
:1017300000F036FD2F2323220221204600F07DFBFE
:101740002F2324220321204600F077FB0C232022A4
:101750002D21204600F02CFD0C2321222E21204695
:1017600000F026FD0F49204600F0AAFD0EA3362208
:101770000121204600F014FD204600F08AFDBDE85E
:1017800010404FF47A70FEF7A9BE00008E68000882
:10179000550000000D8B00083800000067000000B5
:1017A000B2000000164600086769746875622E630F
:1017B0006F6D2F6F6C696B726175732F753867323F
:1017C00000000000A6B0FFF723F9FFF7AFFEFFF718
:1017D00035FEFFF751FEFFF76FFE684600F0E8F9AF
:1017E000684600F011FD6846FFF76CFF684600F0A0
:1017F000CFF9684600F02EFD0028F4D1F0E7000094
:101800002DE9FC47824600F0EDF900250024AAB23C
:10181000A1B2504600F0B8FB504600F03AFD10343B
:10182000802CF4DB1035402DF0DB504600F0DAF967
:101830001E27402680254FF6FF74784206EB4001B4
:1018400089B205EB800083B20091BAB204EA470185
:10185000504600F0D0F9504600F01BFDBF1E002F8F
:10186000EBDC504600F0BEF90027784206EB400161
:1018700089B205EB800083B20091BAB204EA470155
:10188000504600F05EFA504600F003FDBF1C202FCA
:10189000EBDB504600F0A6F91E274FF0030800BF0F
:1018A00097FBF8F07942C0F10A0006EB410280B2E2
:1018B00092B2CDE9002005EB810083B2BAB204EA0E
:1018C0004701504600F077FB504600F0E2FCBF1E97
:1018D000002FE5DC504600F085F9B146002746466A
:1018E00097FBF6F07942C0F10A0009EB410280B2A1
:1018F00092B2CDE9002005EB810083B2BAB204EACE
:101900004701504600F0CAFB504600F0C2FCBF1C25
:10191000202FE5DB504600F065F902260F25B3B213
:10192000202240215046009500F0A7F9504600F0D3
:10193000B0FCF61C402EF2DB504600F053F9402676
:10194000B3B2202240215046009500F076F950466F
:1019500000F09FFCF61E002EF2DC504600F042F92B
:101960000226B0B2CDE9000504EA46032022402158
:10197000504600F0C4F9504600F08BFCF61C202EB7
:10198000EFDB504600F02EF92026B0B2CDE900057D
:1019900004EA460320224021504600F08EF95046CA
:1019A00000F077FCF61E002EEFDCBDE8FC8700009F
:1019B0002DE9F0430A24264FDFF8988087B081464E
:1019C00026460425484600F00DF9204601F06BFE3E
:1019D00000223B4601F0E0FC0022434601F07AFE83
:1019E00001F032FE02461CA102A8FEF7F1FB1C49E1
:1019F000484600F065FC1BA320221021484600F059
:101A0000CFFB1B49484600F05BFC02AB312264214E
:101A1000484600F0C5FBCDE90065A3B2282210219D
:101A2000484600F0C8FACDE900655023282210216D
:101A3000484600F033FB484600F02BFCA41C502C19
:101A4000C0DD07B04FF4FA70BDE8F043FEF746BDC5
:101A50000000544000005940256425250000000086
:101A60001D59000853544D33322055386732000059
:101A7000F44800087CB506464FF47A7500F0B2F8D9
:101A800017A30E220021304600F08AFB16483024AE
:101A9000CDE90040802310220021304600F08EFB6B
:101AA000304600F0F6FB2846FEF718FD304600F001
:101AB00099F80EA30E220021304600F071FB0E486B
:101AC0008023CDE9004010220021304600F076FB53
:101AD000304600F0DEFB2846BDE87C40FEF7FEBC49
:101AE0004472617758424D00E838000862696C69B9
:101AF00062696C6900000000E83B00087FB51DA327
:101B000005460FCB8DE80F004FF47A74284600F09D
:101B100069F81C49284600F0D3FB6B4605220021DA
:101B2000284600F03DFB284600F0B3FB2046FEF7B8
:101B3000D5FC1549284600F0C3FB6B461E22002148
:101B4000284600F02DFB284600F0A3FB2046FEF7B8
:101B5000C5FC0E49284600F0B3FB6B463C22002131
:101B6000284600F01DFB284600F093FB2046FEF7B8
:101B7000B5FC7FBD53544D33324631303343385476
:101B800036000000E83E0008F4480008CA52000889
:101B900010B50446FFF70CFF2046FFF731FE204644
:101BA000FFF7ACFF2046BDE81040FFF763BF000021
:101BB00010B50446084B094A094900F0CDFB204600
:101BC00001F087F90021204601F093F92046BDE895
:101BD000104000F007B80000ED320008952F000813
:101BE000348E000801680A7C90F83810406B51432D
:101BF000C900FEF771BB2DE9F8438146089C1E46DB
:101C0000101980B20090881983B21546884648465C
:101C100000F008FB00280ED00027002C0BD0334624
:101C20002A4641464846009700F00EF96D1C641E96
:101C3000ADB2A4B2F1E7BDE8F8832DE9F8431C4644
:101C400080461019401C80B200900819401C83B2D5
:101C50001546101B82B20E46081B81B2089F4046F3
:101C600000F0E0FA002806D023462A4631464046D6
:101C7000009700F027FCBDE8F8832DE9F8431C46E7
:101C800080461019401C80B200900819401C83B295
:101C90001546101B82B20E46081B81B2089F4046B3
:101CA00000F0C0FA002806D023462A4631464046B6
:101CB000009700F099FCBDE8F8832DE9FC478146C8
:101CC000DDE90A481019401C80B21D4600904819F1
:101CD000401C83B21646101B82B20F46481B81B2CD
:101CE000484600F09FFA002807D0CDE900482B466F
:101CF00032463946484600F012FDBDE8FC872DE922
:101D0000FC478146DDE90A481019401C80B21D4697
:101D100000904819401C83B21646101B82B20F4631
:101D2000481B81B2484600F07DFA002807D0CDE973
:101D300000482B4632463946484600F08EFDBDE845
:101D4000FC872DE9F84F83460A9E9A46901980B287
:101D500001EB0A04009015460F46A3B2584600F066
:101D600061FA00282FD04FF0000953462A46394621
:101D70005846CDF8009000F067F8022E23D3B61E27
:101D8000360405F10105360CADB214D04FF0010850
:101D900033462A4639465846CDF8008000F054F8BC
:101DA000641EA1B233462A465846CDF8008000F0A2
:101DB0004BF8A81985B253462A4639465846CDF8FD
:101DC000009000F041F8BDE8F88F2DE9F04104469D
:101DD00090F870001F4615460E4630B1012809D014
:101DE00002280CD0032815D10FE0E16D204688476A
:101DF000284408E0E16D20468847301A09E0E16D8B
:101E000020468847281A85B204E0E16D20468847BD
:101E1000304486B22846A4F86460A4F866003946C7
:101E20000025204600F0FCFE010003D0204600F013
:101E300027FE85B22846BDE8F08138B5002400941D
:101E400000F002F838BD00003FB581B0044690F8BC
:101E50008C00089900283AD0BDF81000002836D030
:101E6000012811D9022902D0032907D00CE0BDF8BE
:101E70000820101A401CADF8080005E0BDF80C2041
:101E8000101A401CADF80C0011F0010521D0B4F877
:101E90004810BDF80800814219D8B4F84A108142B0
:101EA00015D9B4F84E30B4F84C2004A90DF10C004B
:101EB00000F0EAFA00280AD00095206BBDF8103037
:101EC000BDF80C208568BDF808102046A84705B06D
:101ED00030BDB4F84C10BDF80C008142F7D8B4F80E
:101EE0004E108142F3D9B4F84A30B4F8482004A91E
:101EF00002A8DDE72DE9FF4F81B090F89270DDF880
:101F000038901D46884606469FB1002083460398B8
:101F10004146401C80B2009008EB050083B2304679
:101F2000039A00F07FF900282BD001244FF0000A1B
:101F300023E00120EAE700BF99F80000204202D028
:101F400086F8927004E096F8910048B986F892B04D
:101F50000123CDF800A041463046039AFFF774FFF5
:101F600008F101001FFA80F8600010F0FF0402D1B0
:101F7000012409F101096D1EADB2002DDCD186F8F6
:101F8000927005B0BDE8F08F08B5B0F84C309342C0
:101F900010D8B0F84E3093420CD9B0F848308B428C
:101FA00008D8B0F84A308B4204D9002300930123AB
:101FB000FFF74AFF08BD2DE9FF4F83B01F46DDE95B
:101FC00010A402EB0A06B0B2CD19009090468946E3
:101FD000ABB2039800F026F900285CD009EB0400AE
:101FE0001FFA80FB08EB040081B2281B401E85B25B
:101FF000301B401E80B2CDE9010102200A4600904C
:10200000234659460398FFF738FE01200090DDE98A
:10201000022023462946FFF730FE04200090234685
:102020005946019A0398FFF728FE0820009023469E
:102030002946019A0398FFF720FE0BF101011FFAD0
:1020400081FB0299381B491C001B80B289B20291A6
:10205000032811D3801E86B2601C85B233464246E7
:10206000594600950398FFF7C6FD3346009559463B
:10207000019A0398FFF7BFFDAAEB0400001B80B292
:10208000032808D3801E80B20090DDE902203B4681
:102090004946FFF7B0FD07B0BDE8F08F2DE9FF4FCF
:1020A00083B01C46DDE9106502EB060A1FFA8AF0D0
:1020B00001EB04090090174688461FFA89F303983C
:1020C00000F0B0F8002867D008EB05001FFA80FB8D
:1020D000781981B2A9EB0500401E80B2CDE901104C
:1020E000AAEB0500401E1FFA80F902200A46009064
:1020F0002B4659460398FFF7A0FD01200090DDE92B
:1021000002102B46019AFFF798FD042000902B4601
:102110004A4659460398FFF790FD08200090DDE9F4
:1021200002102B464A46FFF788FD601B711B401BBF
:10213000491B8DB20BF101011FFA81FA019980B29E
:10214000491C1FFA81FB032810D3801E80B28146F0
:1021500003463A465146761E0398FFF76EFEB819BD
:1021600082B24B4651460398FFF767FE032D13D307
:10217000AD1EADB22B465A464146641E039800F090
:1021800017F808EB040081B2039807B02B465A46B3
:10219000BDE8F04F00F00CB807B0BDE8F08F0000CC
:1021A00030B4024C446030BC00F009BC592F000828
:1021B00038B501240094FFF747FE38BD2DE9F84FEC
:1021C0008246DDE90A57D81DC0F3CC08501980B209
:1021D0001C460090081983B216468946504600F006
:1021E00021F800280ED00BE02346324649465046DF
:1021F0000097FFF77FFE761C6D1E4744B6B2ADB266
:10220000002DF1D1BDE8F88F10B5044690F8930089
:1022100010B12046FFF7E6FC2046BDE81040002143
:1022200000F040B870B50D461E460446B0F84E109A
:10223000B0F84C00049B00F050FD002809D0B4F821
:102240004A10B4F8480033462A46BDE8704000F012
:1022500044BD70BD70B5044600F0CFFD94F8390060
:1022600094F838100844C5B22068407CA84204D8CD
:10227000204600F036FE002070BD94F8930010B1A7
:102280002046FFF7AFFC2946204600F00BF801205E
:1022900070BD10B5044600F0B0FD2046BDE810400A
:1022A00000F01FBE10B5044680F83910006B0168BD
:1022B00020468847206B41682046BDE8104008470B
:1022C00010B50446806D884209D004F17400A16500
:1022D00000F05EFD2046BDE8104000F059B810BD8A
:1022E00080F87010704780F86D1070470149C16523
:1022F00070470000352A00080021A0F85010A0F80F
:1023000054104FF6FF71A0F85210A0F85610016B50
:102310004968084770B5044600250498A565E3623E
:10232000616384F8382084F8395084F86D5084F85B
:102330009150012184F8921084F893102063016871
:10234000204688472046FFF7D7FF2046FFF7CEFFFD
:1023500084F8705070BD00007CB50C4600931346A5
:102360000546084A084900F0CCFD01A800F00AFD26
:102370000146064B00949DF804202846FFF7CAFF4B
:102380007CBD0000BD300008E5310008F52C0008D8
:1023900010B5816D00291AD090F9813080F88E3007
:1023A00090F9822080F88F2090F88D1000290ED0AF
:1023B00001290DD090F97E4090F980100C449C4288
:1023C00001DD80F88E408A4201DD80F88F1010BD5B
:1023D00090F983108B4201DA80F88E1090F9841006
:1023E000F1E72BB1012B05D0022B06D0104402E0FF
:1023F000084400E0801A80B27047401AFBE72BB116
:10240000012B05D0022B06D0401A02E0104400E058
:10241000084480B27047801AFBE738B50446B0F82C
:1024200056000090B4F85230B4F85420B4F850106C
:102430002046FFF7F7FE18B3012084F88C00B4F8AB
:102440004810B4F85000814201D2A4F84800B4F812
:102450004A10B4F85200814201D9A4F84A00B4F8F5
:102460004C10B4F85400814201D2A4F84C00B4F8E6
:102470004E10B4F85600814201D9A4F84E0038BD80
:10248000002084F88C0038BD30B504880D882544C0
:10249000ADB2AC4205D99C4202D25D1EADB200E0A5
:1024A00014469C4201D2954201D8002030BD94428E
:1024B00000D214469D4200D91D460480281B088086
:1024C000012030BD2DE9FF4FC3F1010083B006B2FA
:1024D00058429146DDF840A040008B4601271C463B
:1024E000CDE9009A00250FFA80F85B46224629467E
:1024F00015E0002E08DB08F102000FFA80F8641ED8
:1025000006EB0800A4B206B26D1CBF1C3FB2CDE9B9
:10251000009AADB2F01906B25B46224629460398EE
:1025200000F005F8A542E4D307B0BDE8F08F2DE92F
:10253000FF4F83B00E46DDE9108703EB06000290E3
:102540001546A8EB0600019003EB05001C46F907B1
:10255000A8EB050B00900DD002981FFA8BF281B208
:102560000398FFF711FD019882B2009881B2039899
:10257000FFF70AFDB907A4EB060AA4EB05090DD580
:102580001FFA8BF21FFA8AF10398FFF7FDFC0198FE
:102590001FFA89F182B20398FFF7F6FC08EB0504F5
:1025A000390708EB06050BD50298A2B281B2039851
:1025B000FFF7EAFC0098AAB281B20398FFF7E4FCA7
:1025C00078070ED5A2B21FFA8AF10398FFF7DCFC58
:1025D000039807B0AAB21FFA89F1BDE8F04FFFF7E0
:1025E000D3BC07B0BDE8F08F2DE9FF4FC3F1010068
:1025F00083B006B258429146DDF840A040008B46B9
:1026000001271C46CDE9009A00250FFA80F85B46A9
:102610002246294615E0002E08DB08F102000FFAD9
:1026200080F8641E06EB0800A4B206B26D1CBF1C45
:102630003FB2CDE9009AADB2F01906B25B46224630
:102640002946039800F005F8A542E4D307B0BDE899
:10265000F08F2DE9FF4F83B0164610980F46A0EB80
:10266000060B03EB070001901098DDF84490A0EBF7
:10267000070098465FEAC97103EB060A02F10105FB
:1026800007F1010400900FD00198ABB281B21FFA9C
:102690008BF20398FFF78CFD0098A3B282B21FFA69
:1026A0008AF10398FFF784FD5FEA8971A8EB0707B9
:1026B000A8EB06060DD5ABB21FFA8BF2B9B20398A0
:1026C000FFF776FD0098A3B282B2B1B20398FFF78C
:1026D0006FFD5FEA09700DD50198ABB281B2109A17
:1026E0000398FFF765FDA3B21FFA8AF1109A0398C9
:1026F000FFF75EFD5FEA49700ED5ABB2B9B2109A32
:102700000398FFF755FD109A039807B0A3B2B1B232
:10271000BDE8F04FFFF74CBD07B0BDE8F08F2DE9E5
:10272000FF4F87B01C46149D03FB04F105FB05F029
:10273000470004900020CDE90230C3F101004E00B3
:10274000001B68434FF0000800FB05F907FB04FB82
:10275000C24605911EE015990998CDE90001DDE911
:102760000703DDE9021200F048F803980599401CC0
:1027700080B2039088198844059009EB4800B24460
:10278000002807DD0298C844401E80B2ABEB070B5F
:10279000B9440290D345DEDA00200290C5F1010071
:1027A000401B604300FB04F8AB460024A14606FB37
:1027B0000BF5DDF810A01BE015990998CDE9000193
:1027C000DDE907035A46029900F017F802985444CD
:1027D000401C80B2029008EB4400B944BA4400287F
:1027E00006DDABF1010044441FFA80FBAD1BB04491
:1027F000A945E1DD0BB0BDE8F08F2DE9F05F914612
:10280000DDE90AA488461E468346E207AAEB0905CD
:1028100003EB080704D0AAB2B9B25846FFF7B4FBDD
:10282000A107A6EB080604D5AAB2B1B25846FFF735
:10283000ABFB22070AEB090504D5AAB2B9B2584688
:10284000FFF7A2FB600706D5AAB2B1B25846BDE8B1
:10285000F05FFFF799BBBDE8F09F2DE9FF4F87B010
:102860001C46149D03FB04F105FB05F04700049092
:102870000020CDE90230C3F101004E00001B684387
:102880004FF0000800FB05F907FB04FBC246059169
:102890001EE015990998CDE90001DDE90703DDE99E
:1028A000021200F048F803980599401C80B203908A
:1028B00088198844059009EB4800B244002807DDD8
:1028C0000298C844401E80B2ABEB070BB94402909B
:1028D000D345DEDA00200290C5F10100401B6043C1
:1028E00000FB04F8AB460024A14606FB0BF5DDF81F
:1028F00010A01BE015990998CDE90001DDE9070357
:102900005A46029900F017F802985444401C80B2CD
:10291000029008EB4400B944BA44002806DDABF14C
:10292000010044441FFA80FBAD1BB044A945E1DD22
:102930000BB0BDE8F08F2DE9F05F8946DDE90AA50F
:102940001F468346E907AAEB020803EB090602F1DA
:10295000010406D0A3B21FFA88F2B1B25846FFF7BD
:1029600027FCA907A7EB090706D5A3B21FFA88F22F
:10297000B9B25846FFF71CFC280705D5A3B2B1B27F
:1029800052465846FFF714FC680707D5A3B2B9B200
:1029900052465846BDE8F05FFFF70ABCBDE8F09F1D
:1029A00038B5C58F049C0094521BC46A92B2A047EC
:1029B00038BD38B5049C0094FFF7F2FF38BD2DE90F
:1029C000F0471C4691468846064600F0E0FC00258C
:1029D0004FF6FF7772682178304690470346B84239
:1029E00025D0641CA3F57F40FE38F3D04A4641460B
:1029F0003046FFF7EAF996F8701031B1012907D097
:102A0000022908D003290FD10AE008EB000104E0F5
:102A100009EB000106E0A8EB00011FFA81F803E0D2
:102A2000A9EB00011FFA81F9284485B2D2E72846B4
:102A3000BDE8F0870020704710B50C4600F006F89E
:102A40000122641EA240801A40B210BD30B5056854
:102A5000047B2A78E2406318DBB2082B09D36D1C93
:102A600005602D78C4F10804A5401543083BEAB27F
:102A7000DBB201248C40641E14400373204630BD39
:102A80002DE9F843054600F1600400F00CF915F952
:102A90006B6F2046E97BFFF7CFFF8146297C2046FC
:102AA000FFF7CAFF0746697C20466B3DFFF7C4FF6E
:102AB000804694F90A00002857DDF019404247B2D9
:102AC000237CA0883A464946FFF78BFCA080237CF4
:102AD0003A46E0884946FFF792FCE080A188277CCF
:102AE00002460B4637B1012F0AD0022F40D0032FE8
:102AF0000FD146E094F90A7030443B449BB207E0A2
:102B0000891B491C94F90A705B1C89B29BB238443A
:102B100080B200902846FFF785FB30B3002020727A
:102B200084F8090095F876102046FFF78FFF81465C
:102B300095F877102046FFF789FF0746002249469F
:102B4000284600F027F801223946284600F022F8EE
:102B500001212046FFF77AFF0028EFD194F9090000
:102B6000B042DFDBA07B85F892004046BDE8F883E9
:102B700094F90A705B1CC91B491C89B29BB2921B59
:102B800004E094F90A7033449BB2D21B521C92B2F7
:102B9000401CBDE72DE9F74F84B00D46049C94F826
:102BA000687094F869806034A07AC01BC6B2019640
:102BB000B54200D201954FFA88F279B2A088B4F8F4
:102BC00006B0237C92468946FFF70BFC0290237CDB
:102BD000524649465846FFF712FC0246069808B18D
:102BE000A17B02E0607B50B9E17B049880F89210F1
:102BF000207C0090DDE901310498FFF725F9B5420A
:102C000007D3A81BC5B208F10100002700F0FF0898
:102C1000CAE77819207284F8098007B0BDE8F08F00
:102C200070B50D460146806D1730FF2D10D8612D0F
:102C300002D3B1F8881003E0412D02D3B1F8861019
:102C40000844417819B30278AA42F9D1801C70BDBA
:102C5000B1F88A100C1826460021304600F019F809
:102C600004440221304600F014F8361DA842F3D384
:102C70004FF6FF72207802EA00216078084306D000
:102C8000A84201D1E01C70BDA0780444F2E7002006
:102C900070BD08444FF6FF720178407802EA0121C6
:102CA000084480B2704730B5054600F16004016603
:102CB0000020207315F8781F2046FFF7C7FEA0728A
:102CC00069782046FFF7C2FEE072A87EA07310B1BB
:102CD0000020E07330BD0120FBE78A4205D2834229
:102CE00001D89A4203D9012070478342F9D80020C5
:102CF00070470000F0B502F007060124B44000253B
:102D000090F892E0E7B2DDF814C02C46BEF1010F56
:102D100001D83D4600D03C46076822F00702BCF1CE
:102D2000000F3F7C07FB02F7BAB2476B3A441144ED
:102D300009D108785B1E284360401B0401F8010B91
:102D40001B0CF6D1F0BD0A78761C2A436240A3F131
:102D500001030A7016F007069BB206D06A06150E2C
:102D60006206140E002BEED1F0BD428F114490F894
:102D70009220012A03D800BF4FF00105F2D04FF096
:102D80000104EFE70821017000487047340100207A
:102D900070B5054608782870487868708878A870FB
:102DA000C878E870087928714879687188790C4684
:102DB000A871E079E871207A2872607A6872A07A46
:102DC000A872E07AE872207B2873607B6873A07B2E
:102DD000A873E07BE873207C287411212046FFF75C
:102DE00058FF688213212046FFF753FFA882152160
:102DF0002046FFF74EFFE88270BD2DE9F8430646F6
:102E000090F8387090F83950006800244FF6FF7839
:102E100090F81190316830462A460B7C716B04FBA8
:102E200003FC1FFA8CFC08EACC0C614400910021E1
:102E300000F040F8641C6D1CE4B2EDB2BC4201D25B
:102E40004D45E7D3BDE8F883F0B590F838204FF64C
:102E5000FF75036805EAC2018187197C05EAC10193
:102E6000418790F8394005EAC401C1875E7CA71804
:102E7000B74201D9321B92B205EAC20220F8401FC4
:102E800011444180998A8180D98AC180F0BDFFF7C1
:102E9000DBBF0021A0F84810B0F84410A0F84A1099
:102EA000B0F84010A0F84C10B0F84210A0F84E1046
:102EB000FFF7B3BA1CB58DF805108DF80620049CF9
:102EC0008DF804300094012284686B460F21A047DE
:102ED0001CBD30B484680023A44630BC1A460A21C5
:102EE000604730B484680023A44630BC1A461021E1
:102EF000604730B484680023A4460A4630BC0B21E6
:102F000060472DE9F04115460E460446069F00F045
:102F100009F86761A660C4E903532046BDE8F041A3
:102F200000F012B8002140F8081B064A0260426017
:102F30008260C260C17681770161FF21017780F8EC
:102F400020107047E932000830B484680023A4469A
:102F500030BC1A4609216047080001D00A2801D177
:102F60004FF6FF70704730B404690023A44630BCAC
:102F70001A461921604713B50122046901AB1721D4
:102F8000A0471CBD30B404690023A44630BC1A46D7
:102F90001821604738B5184818290DD004DC1429C9
:102FA00007D0172923D10AE0192916D020291ED1CC
:102FB0001FE0FEF761FA1CE00021017019E00F4CE0
:102FC00008E000BF017813F8015B6554491C521EEC
:102FD0000170D2B2002AF5D10BE04FF47A71009162
:102FE0000378064A78210648FDF744FC08B1002022
:102FF00038BD012038BD000010000020B4000020C2
:103000001800002030B4C4680023A44630BC1A461F
:103010001921604730B4C4680023A4460A4630BC76
:103020001621604730B4C4680023A4460A4630BC69
:103030001521604730B4C4681346A4460A4630BC24
:1030400017216047F8B50C464FEA000514F8011B3C
:10305000182924D00EDC152919D0162917D01729C4
:1030600023D120788DF800006A4601212846FFF719
:10307000E1FF0AE0192912D0FE2916D122788DF835
:1030800000202921284600F066F9641CDEE722783A
:103090008DF80020EE6800232846B047F5E70023AE
:1030A000EE681A462846B047D0E7F8BD30B4C46889
:1030B0000023A44630BC1A46182160472DE9F04190
:1030C000DFF8B08014460646A1F11402002798F8F4
:1030D00000001D46062A4AD2DFE802F02F03161B25
:1030E0003E4310B13046FFF73EFF3046FFF74AFF40
:1030F00000213046FFF73FFF21463046FFF73BFFF8
:10310000012088F8000029E021463046FFF733FF10
:1031100024E050B13046FFF726FF06E01821304684
:1031200000F01FF9183CE4B21835182C2A46F5D8DF
:103130002146304600F015F90EE096F82400FF28ED
:1031400002D1782086F8240037692B462246304683
:10315000BC46BDE8F041604788F800700120BDE83A
:10316000F0810028F8D03046FFF7FDFEF4E700209C
:10317000F5E700001100002070B500234569044602
:103180001A462821A8470023E5681A46142120463C
:10319000A84701224B21204600F0DDF820682921B4
:1031A0000279204600F0D7F800224B21204600F09B
:1031B000D2F8206829210279204600F0CCF80122BB
:1031C0004B21204600F0C7F820682921427920468B
:1031D000BDE8704000F0BFB80160897C80F8221023
:1031E0007047000070B50C46054600F019F888B924
:1031F000092C0BD00A2C01D0002070BD2846FFF707
:10320000BBFF05492846FFF71DFF03E00349284699
:10321000FFF7E2FF012070BD668E0008688F00088E
:103220002DE9F0411E46144605460B2908D00D290C
:103230000ED00E291ED00F2927D00020BDE8F08126
:103240001AB12849FFF7FEFE4AE02649491FF9E76F
:103250004AB124490C31FFF7F5FE286890F81300B5
:1032600085F822003CE01F49491DFFF7EBFE286866
:10327000807CF5E7FFF71AFF81212846FFF7D2FE91
:1032800021462846FFF7C6FE27E0FFF70FFF7079BB
:1032900095F8221001EBC000C7B240212846FFF785
:1032A000C1FE102040EA17112846FFF7BBFE07F0C9
:1032B0000F012846FFF7AEFEB07940F0B001284676
:1032C000FFF7A8FE30793268C006010E2846FFF7E6
:1032D000B1FE641E14F0FF04F4D12846FFF792FEFD
:1032E0000120ABE7458E00080020704710B54D293E
:1032F00019D00CDC2B2918D004DC292920D02A294C
:103300000ED114E02D291FD04C2909D10BE0002249
:1033100050291DD051291BD0522919D0532917D01B
:10332000012180F82710012010BD00BFFBE700201D
:103330004FF4A07100BF401C80B28842FAD3F2E77C
:103340000120FDF7CBF8EEE70520FEF78BF9EAE761
:1033500080F82720E7E730B444690023A44630BC56
:1033600060472DE9F04115460E460446FFF70AFE78
:1033700040212046FFF7FFFD27692B4632461721E3
:103380002046B8472046BDE8F041FFF7ECBD0021DC
:1033900080F82610704700002DE9C04130B4DFF8F6
:1033A000A0C23CEA111418BF3CEA131400F0EC80F0
:1033B00081EA03051CEA111444EAD57418BF1CEA1B
:1033C000131500F0C780A4EB05044FF0004545EA53
:1033D000C12145EAC32341EA505143EA525304F163
:1033E0007F74994204F500344FEAC0204FEAC222AC
:1033F00008BF904200F09C804FEA13650FF2401620
:10340000765D4FEA134506FB05F7C7F1807706FBAB
:1034100007F74FEAD737A7FB03687642C8F580382D
:10342000A7FB06CE38BFA8F1010807FB08E64FF05E
:10343000000EA6FB028CE6FB03CEDCF1000CCEF105
:10344000004E38BFAEF1010EA6FB0C584FF000073E
:103450004FF00005E6FB0E87A1FB08C6A0FB07CED8
:1034600016EB0E0645F10005E1FB076515F1E04E90
:103470007EBFA4F580345FEA46066D4116F18007F1
:1034800045F100054FEA17274FEA066647EA056748
:10349000A6F1DE46B6F1805F4FEA15251FD9384602
:1034A00024F0010C05EBC471BCF1FE6F01EB0C11B3
:1034B00002D8F0BCBDE8008124425CBF01F5801E4B
:1034C0009EEAC47F02D4F0BCBDE80081244238D417
:1034D000F0BCA1F1C041BDE8004100F0F3B94FEAF2
:1034E000D22242EA43524FEAD323A7FB02864FEA95
:1034F000D02040EA415007FB03661EEA0E0F4FEA58
:10350000D12105FB026658BFA6EB0056B6EB00566C
:103510004FEA520E4EEAC37E18EB0E0E56EB530ED8
:10352000BDD518EB02085E417F1C55F10005B6E7DA
:103530004FF480154FF000074FF000064FF00008E1
:10354000ADE7F0BC4FF0000001F1C04101F00041D7
:10355000BDE8008111EA0C1F0CEA131500D00CE045
:1035600013EA0C1F00F025804FF00000F0BC81EA48
:10357000030101F00041BDE80081F0BCBDE800415D
:1035800081EA030100F09EB9F0BCBDE8004170B5CE
:1035900000F04AF9097EFC3E00F007B881EA030119
:1035A0004FF0000001F00041704781EA030100F094
:1035B00089B9F0BCBDE800414FF0000021497047D7
:1035C000FFFDFBF9F7F5F4F2F0EEEDEBE9E8E6E4E8
:1035D000E3E1E0DEDDDBDAD8D7D5D4D3D1D0CFCD6F
:1035E000CCCBCAC8C7C6C5C4C2C1C0BFBEBDBCBBA8
:1035F000BAB9B8B7B6B5B4B3B2B1B0AFAEADACABA3
:10360000AAA9A8A8A7A6A5A4A3A3A2A1A09F9F9E7C
:103610009D9C9C9B9A99999897979695959493932E
:10362000929191908F8F8E8E8D8C8C8B8B8A8989C5
:103630008888878786858584848383828281818048
:103640000000FF070000F87F4FEA41034FEA5353A1
:10365000A3F58063D3F11E03C8BFD3F1210C0CDDA9
:103660004FF0004242EAC12242EA505232FA03FCD1
:103670008CEAE17CACEBE1707047102BC4BF0020FA
:10368000704703F5787CBCF1FF3F04D06FF0004237
:1036900082EA2100704770B500F0C6F84992248094
:1036A00000207047F2E710F0004248BF4042B0FAF5
:1036B00080F310FA03F10AD0C3F11D0303F5806310
:1036C0004FEA415002EB035202EBD12170474FF019
:1036D00000007047DFF848C170B51CEA111E1EBF1C
:1036E0001CEA13159EEA0C0F95EA0C0F00F06F8090
:1036F00081EA030423EA4C134EEAD47E21EA4C11FA
:1037000041F4801143F48013AE44A1FB024CA0FBB2
:103710000365AEF17F7E361955EB0C05A1FB034C1A
:103720004CF10003A0FB021C16EB0C06654153F1A3
:103730000003094218BF46F0010613F4007F0BD1C5
:103740004FEA03314FEA0530340341EA155140EAAC
:1037500016506FF003020AE04FEAC3214FEAC5207A
:10376000F40241EA555140EA56506FF0020202EB72
:103770002E4201EB025585EACE710AD05FEA440C75
:1037800018BF24F0004450F1000041F1000120EA8C
:10379000D47040F2FE7C624500D270BDA84214BFD6
:1037A0004FF080444FF04044002E08BF0024BEF18B
:1037B000806FA8BFA1F1C041BDE8704080F2828057
:1037C0004FF0000001F1C04101F0004170479EEA56
:1037D0000C0F0CEA131518BF95EA0C0F06D04FF02A
:1037E000000081EA030E0EF0004170BD00F01CF8ED
:1037F0008900013E00F007B800F009B84FEA430C19
:103800005FEA5C5C08D081EA030100F05BB84FEA34
:10381000410C5FEA5C5CF6D14FF000000149704753
:103820000000FF070000F87F0EF1020E2EF0030EDD
:103830005EF8046B364205D4012A43EB030515F507
:10384000001F12D8012841EB010C1CF5001F0CD8F9
:103850000ED14FEAD17C15F5001F0CEB4C0C0CF18E
:10386000020C08BF4CEBD37C04E04FF0080C01E0E5
:103870004FEAD37C0CEB4C0526FA05F606F007065A
:10388000B6F1040C06D20EEB860CBDE870404CF08D
:10389000010C6047DFE80CF0090B02024FF0004119
:1038A0004FF00000A1F5002170BD19461046012817
:1038B00051EB010418BFD4F5001484BF002001F0BF
:1038C000004170BD0808A0F500114FEA31017047B2
:1038D00000000000000000000102030406070809C0
:1038E00000000000010203040000000000000000CE
:1038F00000000000000000000000000000000000C8
:1039000000000000000000000000000000000000B7
:1039100000000000000000000000000000000000A7
:103920000000000000000000000000000000000097
:10393000000000000000000000000300070000007D
:1039400000000000000000000000078007000000E9
:10395000000000000000000000000FC00700000091
:10396000000000000000000000001EE00300E00076
:103970000000000E0000000000003CF00000F80015
:103980000000800F0000000000FCFFFFFF01FC00B2
:103990000000C00F0000000000FFFFFFFF03FC005D
:1039A000003CC00F0080030080FFFFFFFF07FC000A
:1039B000003CC00F00C0070080FFFFFFFF0FFC00AE
:1039C000003C800F00C00700C00F0000800FF8000F
:1039D000003C800F00800700C0070000001FF800B7
:1039E0000078800F00800700C0070000001FF8006B
:1039F0000078800F00800700C0070000001FF8005B
:103A00008079800F00980700C0070000001FF800B1
:103A1000E0799F0F00BEE701C0071040001FF800CB
:103A2000E07B1F0F00BEE701C0871FE00F1FF800FB
:103A3000E07B1E0F003EE701C0E73FE03F1FF000C4
:103A4000E07B1E0F003EE701C0E73FE03F1FF000B4
:103A500060711E0F0034E701C0E707003F1FF00050
:103A60000070001F00000700C0070000001FF000EA
:103A7000C0731E1F003CC701C0070000001FF000FC
:103A8000C0731E1F007CE701C0070000001FF0008C
:103A9000C0731E1F007CEF01C0070000001FF00173
:103AA000C0771E1E007CEF01C0070003001FF0FF5F
:103AB000C1F71EFE1F78EF01C0077037001FE0FF3F
:103AC00087F71EFEFF78EE01C007E03F001FE0FF12
:103AD0009FF71EFEFF79CE01C007C018001FE0FF50
:103AE000BFE71EFEFF7BCE01C0070000001FE0C73E
:103AF000BFE71EFEF877CE01C0070000001FE00FF1
:103B00003FE71CFEF077CE03C0070000001FE0CFA8
:103B10003FE71CFEF8F3CE03C0FFFFFFFF0FE0EF0F
:103B20001FE71CFEFEF1CE0380FFFFFFFF0FE0FF4B
:103B30000FCF1CFCFFF0C00300FFFFFFFF07E0FFFB
:103B400003061CFC7F60C00100FEFFFFFF03E0FFD7
:103B5000000000FC0F00000000FCFFFFFF00C00F92
:103B6000000000FC0000000000C003001E00000078
:103B70000000000000000000008001000C000000B8
:103B80000000000000000000000000000000000035
:103B90000000000000000000000000000000000025
:103BA0000000000000000000000000000000000015
:103BB0000000000000000000000000000000000005
:103BC00000000000000000000000000000000000F5
:103BD00000000000000000000000000000000000E5
:103BE00000000000000000000000000000000000D5
:103BF00000000000000000000000000000000000C5
:103C000000000000000000000000000000000000B4
:103C100000000000000000000000000000000000A4
:103C20000000000000000000000000000000000094
:103C30000000000000000000000000000000000084
:103C40000000000000000000000000000000000074
:103C50000000000000000000000000000000000064
:103C60000000000000000000000000000000000054
:103C70000000000000000000000000000000000044
:103C80000000000000000000000000000000000034
:103C90000000000000000000000000000000000024
:103CA0000000000000000000000000000000000014
:103CB0000000000000000000000000000000000004
:103CC00000000000000000000000C0010000000033
:103CD00000000000000600000000C001000000E03D
:103CE00007000000000700000000E003000000FCE7
:103CF0001F000000000F00000000E003000000FEB5
:103D00007F000000800F00000000E003000000FFC3
:103D1000FF000000801F00000000F0030000800F83
:103D2000F0000000C03F00000000F8030000800F1A
:103D3000F0010000FCFF010000C0FDFF0000C07F9B
:103D4000FE010000FFFF0F0000E0FDFF0100C01FAB
:103D5000F8030000FFFF0F0000E0FDFF0100C00FAF
:103D6000F0030000FEFF070000E0FDFF0100C06758
:103D7000E6030000FCFF030000E0FDFF0100C06758
:103D8000E6030000F8FF010000E0FDFF0000C0674F
:103D9000E6030000F07F000000E0FDFF0000C067C8
:103DA000EE030000E07F000000E0FDFF0000807FE8
:103DB000FE010000E0FF000000E0FDFF0000807F4A
:103DC000FE010000F0FF000000E0FD7F000000FFAA
:103DD000FF000000F0FF000000E0FD7F000000FE9B
:103DE000FF000000F8F9010000E0FD7F000000FE88
:103DF0007F000000F8F0000000E0FD1F000000F868
:103E00001F00000030C0010000000000000000C0E2
:103E1000030000000000000000000000000000009F
:103E20000000000000000000000000000000000092
:103E30000000000000000000000000000000000082
:103E40000000000000000000000000000000000072
:103E50000000000000000000000000000000000062
:103E60000000000000000000000000000000000052
:103E70000000000000000000000000000000000042
:103E80000000000000000000000000000000000032
:103E90000000000000000000000000000000000022
:103EA0000000000000000000000000000000000012
:103EB0000000000000000000000000000000000002
:103EC00000000000000000000000000000000000F2
:103ED00000000000000000000000000000000000E2
:103EE0000000000000000000E000020204030204E1
:103EF00005080700FF04FF05FF00E601DC071120AD
:103F00000500510221064151A20222072397925433
:103F100000230A55CF560D550D5501240C65CF9A37
:103F2000C191D118194400250644B1127B260954C9
:103F3000B11653ACD20827052157222807626FA675
:103F40009A012908626F1253A5002A0622733202D1
:103F50002B0733919656022C05214F222D051393E2
:103F6000322E051151122F0744B10E621B30084347
:103F70009132921A0131064271B60A3207439132E8
:103F8000531A33084391B23218013408439112D3C3
:103F9000880135084391323418013607439132E2E3
:103FA00018370743913253093807439172A41139E6
:103FB000074391728E003A06315192023B06414FFF
:103FC00092043C06327126033D073391B2C1003E94
:103FD0000732711215003F074271A23208400844AF
:103FE000B132D40623410844B1A6E2980142084404
:103FF000B1B2861C0243074391363310440844B1E2
:10400000B2A21C09450944B172A40C4600460844FA
:10401000B132345819470844B1323448634808442F
:10402000B112C794014906415132024A0743913205
:10403000E3024B0844B112478A324C07439112CB3A
:10404000014D0A45D192C15A4983004E0844B1122C
:10405000979A014F0844B1A6A24C0A500844B1B245
:10406000E24819510A45D132524C31AD0052074451
:10407000B1F22A03530844B136341A0A5407439163
:10408000B26205550744B112CD21560844B112CD94
:10409000A400570945D192814AAA0B58074391922F
:1040A000CA54590844B1128706435A0844B13262CF
:1040B00039025B07626FB25A025C0944B192514601
:1040C00019055D07626FA25A035E062397D6005F4B
:1040D0000614AF320260062277120361063391762E
:1040E000046208439112555A0063063271B20464A7
:1040F0000743919A56126507339132D202660843FC
:10410000919AD24A006707438F722601680843914B
:10411000125552016906415192046A08526F964144
:1041200052006B07439112D32A6C06415132026D43
:104130000835D1A25AAA006E073391A2920A6F07DE
:10414000339132D2087008438FA2D28A007107439C
:104150008FB6920C72073271B2120073073391A6B8
:104160009202740743919656147507339192D408BE
:1041700076073391925405770835D19281EA027817
:10418000063391923A7908438F92461C017A07339D
:104190009122A3007B09638FA6CA0CA2007C056153
:1041A0004F727D0A638F2233882929007E0724B746
:1041B0009654027F0854B132A4390480050051029C
:1041C000810953919232486A048208639156C3A1CF
:1041D0000683086391D64647008408539192323A89
:1041E0000285096391964146470086086391D6B9D6
:1041F00046008707426FB2460088086391D606439F
:104200000D890853919232186A8A09639196410682
:10421000430D8B08439192328A098C085331D7465B
:1042200031018D085271123348018E0954B1129335
:104230008A63068F0A64B1A6625271CC00900A6448
:10424000B15A8E91321801910835D136941A0292E2
:104250000C48310F864C736490C10893096391D662
:1042600006238D00940953919232186904950A63CC
:1042700091924146238D0096096391D606498D009F
:10428000970A6391964106498D00980A638F92328E
:1042900048232601990A54B112938A3229009A09B7
:1042A00054B112338A72089B050091029C0500915B
:1042B000029D050091029E050091029F050091025A
:1042C000A008639156136B04A1085271A6414A00DD
:1042D000A20963919A321A6904A30963919A324A36
:1042E0006A04A40A649196548632B500A50964B1A3
:1042F0009654B9D40CA6065151A204A708638F3274
:10430000E29823A80614B91203A90F772F37548611
:104310006AA90CD4D2300D05AA05003103AB0733CE
:104320009136A200AC0623933203AD05003103AEF3
:104330000E772F3754866A99AAD2300D05AF06142E
:10434000B93202B007339532D208B10743319756DC
:104350001AB207339522A300B3063275A206B4063B
:104360002277A600B508432F93D49000B60C56EFE1
:1043700036AEB4324819A400B705917312B80500DF
:104380003103B9063275A20ABA07339532D208BB97
:10439000073391224702BC0F670FA341AC41CA30DB
:1043A0006510474609BD0F670FA341AC41CA30C92C
:1043B0000C524602BE0F672FA3412C558629833825
:1043C000324A00BF05009102C00A64B1965154718F
:1043D000CC00C10964B15A0315C70CC20A64B1A666
:1043E000625271CC00C30A64B196545471CC00C4BB
:1043F0000954B112938A6306C50964B1A60915C7A9
:104400000CC60C48310F864C736490C108C70A541F
:10441000AF323418312A00C80B64B196511A2365A3
:104420003002C90A64B15A8E91321801CA0A64B1C5
:10443000A6E2182A8311CB0B64B112331A2365301C
:1044400002CC07627112550BCD076271265303CE61
:10445000076391D6D902CF08539192CA1600D008AB
:1044600045D176956901D10964B19654867119D206
:104470000A64B1965154512605D30A64B15A031502
:10448000655200D40A64B1A66252512605D50A6469
:10449000B1965454512605D60A54B112938A322942
:1044A00000D7063391923AD80C66EF0EE34C52C512
:1044B000992100D90964B19651690E01DA0864B1F5
:1044C000DA348700DB0A64B1A66246510E01DC09CA
:1044D00054B112338A7208DD0964B1DA1C1A0C0176
:1044E000DE0A64AF92C18A72A40CDF08538FA25413
:1044F0005A11E00963919641464700E108639156DD
:10450000136B04E2086391D6464700E30A64919670
:10451000542654B500E408539192323A02E50863F8
:1045200091D6B94600E60835D136941A02E707421B
:104530006FB24600E80A6391964106232D00E9090F
:10454000639156C3911600EA096391D606232D00A4
:10455000EB0953919232186901EC085271123348F9
:1045600001ED085271A6414A00EE085391D646313A
:1045700001EF08439192328A09F00A64B126354A64
:10458000232605F10A649196548632B500F20A6337
:1045900091964106238D00F309639156C39146001D
:1045A000F4096391D606238D00F50A64919654862A
:1045B000AB5A00F60953919232186904F7085391E7
:1045C00096D14609F80A55CF8ED24C716504F90A86
:1045D0006391964106498D00FA09639156C3A4463A
:1045E00000FB096391D606498D00FC095391923274
:1045F000486A04FD09738F56C3346212FE08538F54
:1046000012555A11FF0A638F923248232601000087
:104610000004FFFF00005F00020203030204040421
:104620000600FF05FF05FF00EE01DC02C12005804A
:10463000CD002106E9C8AC00220693CB2415230A3D
:10464000ACC8A434541A2A012409B3C7A5A1C1488F
:10465000092508ABC864D446012609ACC8C514AB0B
:1046600098022705D1CB082807F2C7A966002908B8
:10467000B2C7C45429002A07ABC8A46A352B08ABBB
:10468000C8C5B462022C0692C729002D058BCA0C3E
:104690002E05C9C8042F07ABC85665043008ABC83F
:1046A000554355003107ABC825590D3207ABC83506
:1046B000531A3308ABC8CC94C1023408ABC82435B4
:1046C00062013508ABC88CA8C1023607ABC84DD50E
:1046D000023708ABC8CC5446003807ABC8ADD60289
:1046E0003907ABC8B5E4023A06E1C8C4003B07AAE3
:1046F000C765A8003C08ABC8A61A64103D069BC954
:104700006C303E09ABC86490412A013F09ABC868D0
:1047100090324C004007ABC82D1B084108ABC85570
:1047200043A9004208ABC8A8B4D2024308ABC8559D
:104730003255004408ABC8A8642D004508ABC88CAE
:10474000A8E2004608ABC88CA862044708ABC8CDF5
:10475000A492004808ABC82435940A4907ABC8ACFA
:10476000580D4A07ABC896AA024B08ABC824B592AD
:104770000A4C07ABC8C4E6004D08ABC8A431940A84
:104780004E08ABC8AAA124004F07ABC85556055028
:1047900008ABC8A8B462045108B3C755560D0252FD
:1047A00008ABC8A8B4920A5308ABC86D90C10254B4
:1047B00007ABC8ACD8025507ABC824D7085608AB1E
:1047C000C8246BA4045708ABC82435860A5808AB24
:1047D000C824D552015908ABC8245556005A07AB16
:1047E000C8CC540E5B06EAC8AC4A5C09ABC8C40C22
:1047F0003288015D06AAC8A86A5E0593CB355F05BD
:104800008BC70C6006D2CBC4006107A3C82D9504EA
:104810006208ABC84495D4026307A3C8CD0C0464F6
:1048200008ABC8A6A592006506A3C855536608AB99
:10483000C8A6B462026708ABC7AD2417006808AB0E
:10484000C84495AC006908ABC86524D3006A08B3B6
:10485000C766582E006B08ABC8C4B4920A6C07AB8D
:10486000C8C8D6006D08A3C8A4A154006E07A3C889
:10487000A864056F07A3C855AA027008ABC7A8B4FF
:1048800062047108ABC72D9564007208A3C8A41513
:1048900023007308A3C88D0C16007408ABC8A515B7
:1048A00033087507A3C8242B097607A3C824AB02D5
:1048B0007708A3C8243554007807A3C8A432157913
:1048C00008ABC72495E4027A07A3C8CC94067B08FA
:1048D000B3C7A6246B107C06E9C80C017D09B3C7D9
:1048E0006410554C117E0794CB2595000000000400
:1048F000FFFF0000BF00030304040304050C0DFFC9
:10490000FE08FE08FE0176034509B9200500CC0922
:10491000210882C4894B8C002208336D8B884A00A1
:1049200023128744BC483012324582919029128C60
:10493000C4002410A53CAB58252209314524915AC6
:10494000080025198AC41D914C2289491225292263
:104950004944128C486221492C2601261188C42C16
:10496000A92428894A233291126522012706316D34
:104970008A01280CA4B4BA504822D2260B06290C6E
:10498000A4B48A604C498B280D002A0B555CAB946B
:104990009449A610002B0A554CAB60A8140C012CAE
:1049A0000842B4098A04002D06135C8A012E0622EF
:1049B000C409022F0C84C4BAA45828168AC5003032
:1049C0000B85449B89842F920900310984451BC9BA
:1049D000482F04320D85449B898422138962870104
:1049E000330E85449B898422125228920900340C8C
:1049F0008544AB95882432BA8906350C85448B836F
:104A000024C842914C00360D85449B89844691B060
:104A1000482600370B84448B432C140B6901380E55
:104A200085449B898422994858241300390D854474
:104A30009B89844542A34826003A0752C4091201C3
:104A40003B0872B4091245023C0856CC4B91B202A5
:104A50003D0735548B6A013E0956CC0BB1922200BA
:104A60003F0D85449B899A481407C944004014A906
:104A70003CBDA14C148D8428FA49228A43E42012BB
:104A80000041108943CC38603C0D0943B253503289
:104A900022421087440C938A485252114944870895
:104AA00000430E8744AC491A71AA180986280044AD
:104AB0001288C40C9B2C2493C82432894C228B98D6
:104AC00000450F86C40B8B28220991242151447480
:104AD000461086C40B8B28228A4842244948460245
:104AE000470F8744AC491A712AAA4962A249004873
:104AF0001189440D0A452692894E32914C249330F7
:104B0000490984C40A8A482F044A0C86C42B9A5047
:104B100045979068044B1189C40C925A4C149444E4
:104B20008B22990A69004C0B86C40B9A50A788E81F
:104B3000004D198B440E1A65368A4822A288242219
:104B40008A4822A29052486522214E1488C40CD96A
:104B500044161A8528A10829348A496611004F0D88
:104B60008744AC598A8C9B24161B01500F87440C38
:104B7000938A48229294A4421A005114983CAC6142
:104B80002C2493C824320945241152A21200520D3C
:104B900088C40C9B48A7584DA48532530C86C49BEF
:104BA000255AB1469A4C00540C86C48B8B96905073
:104BB0001B0500551388C40CCA44169285642159FC
:104BC000481692C54800561288C40CCA441692C5AD
:104BD000244149501215CB0057198B440E8A642288
:104BE000128594429288242489486293A14C281308
:104BF00001581188C40CCA44169A04C7C3C8282691
:104C00009910591088C40CCA441693042551B12A2E
:104C100009005A0A86C48B9B6CB44D765B08A3349A
:104C20008A8A7E195C0C84C48A5830168C0563010C
:104C30005D08A3348A897E295E0B6554AB606C14D1
:104C40004993055F0616340B03600723740A91002D
:104C5000610854C48A998462620D86C40BA116C986
:104C600084449A4C00630B55449B8968268A4C0007
:104C7000640B86C4BBA1CA8965A200650955449B23
:104C800089E42024660D85C4AA89242222C9942897
:104C900000670C8634CBD048A26966BB00680B86DF
:104CA000C40BA116C984C424690A84C41A9174A4CB
:104CB00085006A0AA3B41AB5892E14006B0C8644C9
:104CC0000BA11609892451196C0884C48A91BE105D
:104CD0006D0E5AC40D8948B24212914424056E0AE1
:104CE00056C40B89644262126F0A56C41B8A8849F3
:104CF0004201700D76B40B896442225D84330071E9
:104D00000F77B49B8A482292484612A990007209F4
:104D100054C40AC9490900730854C49A12A90274F8
:104D20000973449A88A4A224750956C40B11978963
:104D300002760C56C48B894A4812138A00770F59A1
:104D4000448D892E21892426114A4400780B56C4AB
:104D50008B894A4C165119790E76B48B894A4812C0
:104D6000138A6642007A0955440B8B48C9007B0BB5
:104D7000A4B42A89484526D2267C0781468B430065
:104D80007D0CA4B40A99484D22D222027E0826DC6A
:104D90009B896402A00500CC09A10882B4095AE4E9
:104DA00000A20E753CCB882522894C22A31800A3B3
:104DB0000F87442C922824B4096592CB0400A40FD9
:104DC000574C8CC824A224114924914900A510886D
:104DD000C40CCA44169304254269514A02A60781AD
:104DE000468B0901A70EA4B41AD24C12A144642325
:104DF0000A00A80823748A882400A91388C42C5A9E
:104E000030129A484211495034498C9100AA0863E3
:104E1000540A592536AB0B56C4AB14094524112549
:104E2000AC0735548B6202AD06135C8A01AE148860
:104E3000C42C5A3012A1484211C948129124C648C4
:104E400000AF0614F40A02B00943649A14490A0038
:104E5000B109554CAB50290E28B20843E49949CA10
:104E600000B30843E489496C02B40723741A0A00AA
:104E7000B50A76B40B11170B5108B61187449CC3C1
:104E80002442094D82916024188915B70622DC0955
:104E900002B80732358AD000B90843E4998828322D
:104EA000BA0A64D41A4948149112BB0E56C48B50E6
:104EB0004822925024A11000BC1388C49C584896E4
:104EC000149B8443C1882C428A4500BD1288C49C2F
:104ED000584896149B8443B248522C6900BE1388EC
:104EE000C48C512C3112138543C1882C428A450051
:104EF000BF0D85342B991C145293482600C014B959
:104F0000432C39448E16078CA7216148760A4A46FD
:104F100004C113B9435CB11C290E184F43C290EC75
:104F200014948C08C214B943BCA9448E12078CA7F0
:104F3000216148760A4A4604C315B9433C493022E8
:104F4000478A03C6D39030243B05252302C415B9F4
:104F500043BC483812478A03C6D39030243B05250A
:104F60002302C515B9433C71282C87C401E3694865
:104F700018929D82921101C6168AC4AD432C228AD2
:104F80004524B110AD128A89223111C500C710A77E
:104F900034AC491A71AA18098688511900C812B68A
:104FA000C41BA91C62114524219224248A880EC99D
:104FB00011B6C43B75884514918448929028223AD2
:104FC000CA12B6C4AB91446C114524219224248AA0
:104FD000880ECB14B6C4AB482C120758441149882C
:104FE00024098922A203CC0BB4C40A999422D20BBF
:104FF00001CD0BB4C42A899422D20B01CE0CB5C4C6
:105000009A892A49A6270A00CF0AB4C49A1C2922E1
:10501000BD10D01188C40C9B2C24334964129944D0
:10502000163101D118B8C43C492C2287C926B2D008
:105030002844094548A1514C328B00D210B7442C6A
:10504000B11C384B917193C4622300D310B7443C18
:10505000A11C3A4B917193C4622300D411B744ACA4
:1050600099440E9BA5C8B84962B11100D512B74446
:105070002C49282207CE5264DC24B1D80800D6126D
:10508000B744AC48301207CE5264DC24B1D80800D3
:10509000D70A554C0B8964169B28D8128744AC4913
:1050A0005A445489502225492C121901D916B8C4E2
:1050B0002C39400EA44C642159481692856421591C
:1050C0008C04DA16B8C44CA91C4899C842B2902C7A
:1050D000240BC942B2180900DB16B8C4BCA1440EA7
:1050E000A24C642159481692856421598C04DC171E
:1050F000B8C4BC483412875126B2902C240BC94244
:10510000B2902C4602DD12B8C44CA91C4899C86262
:1051100092A0242A562501DE0F87448C6949452434
:1051200011494A421A00DF1087442C928A48A2A4EF
:105130002292882A1200E00A84C40A997426A118CF
:10514000E10A84C42A897426A118E20E95C4AAD85B
:105150004475289A44241400E30C85C41ACD43D125
:105160002422A100E40A84C48A48D6998462E50C0A
:1051700084C41A49282299492806E60E58C48CC9C5
:105180002424911C24B20901E70D75349B896826FB
:105190008ACC622200E80C85441BA11C30911C843F
:1051A00004E90B85442B75C844721012EA0C95442F
:1051B000ABD8447922390809EB0D85449BA4481CDF
:1051C00030911C8404EC0A84C40A9974A48500ED0F
:1051D0000A84C42A8974A48500EE0B95C4AAD84415
:1051E00075A68902EF0A84C48A48D6911602F00E89
:1051F00086C40B516894461131492800F10D86C4CC
:105200001B498A1CA232213109F20D86C41BA91C3C
:10521000441131492800F30C86C43B751045C42461
:10522000A100F40F96C4ABE048228750444C120A08
:1052300000F50E86C42B498A1C421131492800F61C
:105240000E86C49BB4481C441131492800F70A5506
:105250004CAB38A00E0801F80D76BCDB0845622186
:1052600049285100F90B86C41BA91C22E23251FACD
:105270000B86C43B758888CB4401FB0D96C4ABE01C
:1052800048220788B84C14FC0C86C49BB4481C22E6
:10529000E23251FD10A6B43B75C844252489094566
:1052A000332100FE0EA6B40BA116C98444BA0867C8
:1052B00000FF11A6B49BB4481C325109496242D187
:1052C0004C0800000004FFFF00005F00030304041B
:1052D000030505100FFEFD0BFD0BFE01C204670662
:1052E000362005008C142109B28514074ACC00220F
:1052F0000843BD15112D012316A784789160241849
:10530000099922C148C8140946829118002417D768
:105310007C78C18A24328A5062C4222D42094D22EF
:1053200092620C00251FBC845DC2A084284A1445EB
:10533000A292505814138724C190281812C5629263
:10534000605004261BBC847D7480482C128BE29034
:105350003984340A8D42329A70442B9544002706D2
:1053600041BD1304280DD47475A19028A4B7982CBE
:1053700018290ED47415C1982C26D229244A032A40
:105380000B55B4562929934C21002B0B778C78E1CF
:10539000B45B380D002C085275141609002D072433
:1053A0009C1587002E06328514062F0DB48475993E
:1053B0006249B1A4580C00300DB7845833891ABF24
:1053C00049D446003109B58558129AFE44320DB7CA
:1053D000843824514DAAA8DBE1103310B784382457
:1053E000514D2A9491A534D284043411B78498C2C3
:1053F000B5882C220A894292A354483511B78438C3
:105400009652386524994A69A40909003610B78470
:105410005824118D2A59A9B195242400370FB78437
:10542000180FC1484C2A942A4AD5003811B784383D
:10543000A4118D6689912236A61105003910B78412
:105440005814518DADB222A5914424003A077285BB
:105450001426033B09927514268B04003C0A778CB2
:10546000D8C1D1F272003D08379C1877C0013E0ABE
:10547000778C18E14D8B61003F0EB68437141149CB
:1054800028538C033501401DBD849ED6E1483692D9
:105490002849482A14918822926899284986724896
:1054A000EC20024117BA849B72881C101147C4A1DA
:1054B000684C1813DAA2A2A864464215B9841A37B8
:1054C00025994826523B0925428950223B8C0043AE
:1054D00017BA847B95C850229E03E61039440E917A
:1054E00083C491A1AC044419BB841C87A07024150B
:1054F00089256289582296882552917072880145C3
:1055000017B9841A078950228D885244C1A22828CD
:105510004A91468407024617B9841A078950228D9A
:10552000885244C1A228280ACA01622A004719BB2E
:10553000847C95D050248EC8011139480E129E45A6
:1055400052D16C488A004818BB841C348A542415F4
:10555000494552D1412415494552915442234909A4
:10556000B485171491FE424A0EB7847944A95E446B
:10557000129124B4064B18BB841C249230288B8AC9
:10558000C29238A02C998A86B29970422A4C17B9D7
:10559000841A6439400E9003E40039400E9046A40A
:1055A00011E181004D24BD841E54CA74341D45642C
:1055B000115144161145641151481212852421518C
:1055C000481212C5544622024E1CBB841CD3C93457
:1055D000440C4566A1902C1413A54D4241527414FD
:1055E000968C23004F18BB847CC5D9482A9103E8C8
:1055F000003A800EA0032452D16C58035017B9848E
:105600001A87906C22940825B2894D0E9003E4000D
:10561000311500511FEB6C7CC5D9482A9103E80075
:105620003A800EA0CC2422896844AC8344E1491C12
:1056300030015217BB841C87A06C269409658A56DA
:1056400099502654134A6A13005312B9845A94C8C5
:105650004C228D482364E7319152025417BA841BBF
:10566000879268A62D2887C82172881C2287C801C6
:1056700034005518BB841CC48938240E8943E29039
:1056800038240E8943E298305A035619BA841BB461
:105690008934248DC982B2A02C2A094BC292384089
:1056A0000E11025724BD841E14CA44260BC964215E
:1056B000992C2689488292882428894882928824B5
:1056C0002A13CBC4321900581BBB841C25CA502690
:1056D0008C8AE200491C300744E480903428134E41
:1056E00048055919BA841BB48934260BCAA292B052
:1056F000240E9043E41039440EA0015A0FB88419C7
:1057000087E19036D53A230E0F035B09D474152632
:10571000FD27025C0FB68417D170341C0D47C3D12E
:1057200070005D09D4741524FD27035E0F77A478FB
:10573000E1E830129388621199005F061774170729
:10574000600834C516326100610E7884593491586E
:10575000569149442B036218B9841A73801C2007A0
:10576000C80192D948512294082532518404630E0D
:1057700077845824118D2A8C884414006417B984C6
:10578000BA73801C2007C82622D14428114A8422DB
:10579000D16C32650F78845934914478A80364A29F
:1057A0000A00660DB6845623896E25A16E24006713
:1057B00010B76CB8928A8C26A9844D57A1A40268B0
:1057C00017B9841A73801C2007C80192D9484D2448
:1057D00013C944320903690AA4843522E9482F0415
:1057E0006A0DD56A75EA8099BE512413006B11B811
:1057F0008419639D262215195122134946036C0909
:10580000B4841523FD0B016D127E841F93D16C347B
:1058100052539229C994642A1C6E1079841A93D920
:10582000484D2413C9443209036F0E7884593491CA
:1058300044C82811C948007014A96C1A93D948515A
:10584000229408252395991C20A6027116A96C594B
:1058500094906822940825429168369103E40031BF
:1058600001720B7784179315558D3400730A768473
:10587000373722DB0500740FA68456D1A0AC24D4A0
:105880001411852600751179841AA3914C2413C92B
:10589000443291683619761078831794892C248BBA
:1058A000498292A8580677187D831C14CA44260B97
:1058B000C964314944129444245199582603780FFD
:1058C000788419A389484695D26292D1007914A8A8
:1058D0006B1794892C248B498292A8581C9404A796
:1058E000007A0876841737BD1D7B0DD57476A29893
:1058F000B6D4A04C312A7C07B1871807027D0FD59A
:105900007416D2A04C311A8B690BC9007E0927A4EA
:105910003813CA040000000004FFFF0000BF0003AA
:105920000305050405061213FEFD0CFD0CFE0238EE
:1059300005110F54200600642401210D83252C132A
:10594000395442D1882502220CA5E0352161194540
:10595000421100231A8A215427128A8422D14172CB
:1059600010298A4407C941A428128A6400241DE929
:10597000E1531987846B9250441429A5188F9650CF
:10598000A8122285249288AC1C0425258C25743508
:105990000B4E88A2485016098A22515124329A444B
:1059A00026D1882818910523A26048148C8D0026E2
:1059B0001D8C2574490788C422B1280EA003481401
:1059C000C948329A8464B4A592A534012708A2E498
:1059D00025718900280EC4A533170AA988F42692D8
:1059E0000503290FC4A133118C896422BD88446941
:1059F000002A11E76045178CA44822A2912422C9ED
:105A000018032B0D08255427563B1C646235002CC7
:105A10000CC4602B23A18C429218002D0744E02C6B
:105A200071082E0964202C23A148002F0F85212CFA
:105A300099164C0BC68269C1200030148921543755
:105A400095C894649299B7894C245391CE00310A39
:105A5000872554272AEE9F0E3213882554458B49FB
:105A600046A6496C38D516111E0E033315892154EC
:105A700055132DC9626269790E98C84E13D1AC04D2
:105A800034158921541D0788A7C4C830320B8D6294
:105A9000A383703C3C35148825547331C501714093
:105AA0002D349EC44CA6D2A804361689215457130F
:105AB0004D441499643C1951D66C13D96491043740
:105AC00012882554F110094A82926058552C5D0EB7
:105AD00002381588255445134946A6894846134976
