:020000040800F2
:10000000500A002001010008090100080B01000846
:100010000D0100080F010008110100080000000098
:1000200000000000000000000000000013010008B4
:100030001501000800000000170100081901000860
:100040001B0100081B0100081B0100081B01000820
:100050001B0100081B0100081B0100081B01000810
:100060001B0100081B0100081B0100081B01000800
:100070001B0100081B0100081B0100081B010008F0
:100080001B0100081B0100081B0100081B010008E0
:100090001B0100081B0100081B0100081B010008D0
:1000A0001B0100081B0100081B0100081B010008C0
:1000B0001B0100081B0100081B0100081B010008B0
:1000C0001B0100081B0100081B0100081B010008A0
:1000D0001B010008250600081B0100081B01000881
:1000E0001B0100081B0100081B010008DFF80CD0F1
:1000F00000F04AF800480047790E0008500A002036
:100100000648804706480047FEE7FEE7FEE7FEE7B1
:10011000FEE7FEE7FEE7FEE7FEE7FEE7C5050008AF
:10012000ED0000082DE9F05F0546002092469B4651
:1001300088460646814640241BE0284641464746FD
:10014000224600F042F853465A46C01A914110D355
:1001500011461846224600F029F82D1A67EB0108CF
:100160004F4622460120002100F020F817EB00093D
:100170004E41201EA4F10104DFDC484631462A46E8
:100180004346BDE8F09F0000064C074D06E0E068DE
:1001900040F0010394E8070098471034AC42F6D3CE
:1001A000FFF7A8FFD0110008F0110008202A04DB97
:1001B000203A00FA02F1002070479140C2F120037A
:1001C00020FA03F3194390407047202A04DB203AB9
:1001D00021FA02F00021704721FA02F3D040C2F167
:1001E000200291400843194670472DE9F04102462C
:1001F00000250026002000230024002791F803C0DA
:100200000CF00F0591F803C00CF0100CBCF1000FBE
:1002100003D091F802C04CEA050591F800C0BCF18A
:10022000000F31D0146800202BE04FF0010C0CFAC5
:1002300000F3B1F800C00CEA03069E4220D183000F
:100240004FF00F0C0CFA03F7BC4305FA03FC4CEA21
:10025000040491F803C0BCF1280F06D14FF0010C43
:100260000CFA00FCC2F814C00AE091F803C0BCF11B
:10027000480F05D14FF0010C0CFA00FCC2F810C079
:10028000401C0828D1D31460B1F800C0BCF1FF0FA6
:1002900034DD546800202EE000F1080C4FF0010816
:1002A00008FA0CF3B1F800C00CEA03069E4221D113
:1002B00083004FF00F0C0CFA03F7BC4305FA03FC64
:1002C0004CEA040491F803C0BCF1280F05D100F1F9
:1002D000080C08FA0CF8C2F8148091F803C0BCF1BD
:1002E000480F07D100F1080C4FF0010808FA0CF88C
:1002F000C2F81080401C0828CED35460BDE8F081BD
:100300004FF6FF710180022181700421C170704796
:1003100070B5002100230F22C47804B3154C246863
:1003200004F4E064C4F5E064210AC1F10403CA40A6
:10033000447804FA03F184781440214309010E4CF7
:100340000678A155047804F01F050124AC40057817
:100350006D11AD0005F1E025C5F8004109E0047814
:1003600004F01F050124AC40044D0678761145F8D1
:10037000264070BD0CED00E000E400E080E100E00C
:1003800029B1064A12690243044B1A6104E0034A88
:1003900012698243014B1A6170470000001002404D
:1003A00029B1064A92690243044B9A6104E0034A68
:1003B00092698243014B9A6170470000001002402D
:1003C00029B1064AD2680243044BDA6004E0034ACA
:1003D000D2688243014BDA6070470000001002408F
:1003E00030B500210022002400232D4D6D6805F05A
:1003F0000C0121B1042905D0082923D105E0294D9C
:10040000056022E0274D05601FE0254D6D6805F46D
:100410007012234D6D6805F48034022505EB92427D
:100420001CB9214D554305600BE01D4D6D6805F469
:1004300000351DB11C4D5543056002E0194D554373
:10044000056002E0174D056000BF00BF144D6D68E8
:1004500005F0F0010909154D6B5C0568DD4045604C
:100460000F4D6D6805F4E061090A104D6B5C45683D
:10047000DD4085600A4D6D6805F46051C90A0B4D79
:100480006B5C4568DD40C560054D6D6805F4404115
:10049000890B074D6B5CC568B5FBF3F5056130BD95
:1004A0000010024000127A0000093D002C000020DC
:1004B0003C00002010B500F001F810BD0CB5002084
:1004C000019000903348006840F480303149086062
:1004D00000BF3048006800F4003000900198401CD4
:1004E0000190009818B90198B0F5A06FF1D1294892
:1004F000006800F4003010B10120009001E00020FD
:1005000000900098012843D12348006840F0100073
:10051000214908600846006820F00300086008468A
:10052000006840F0020008601A48406819494860B5
:100530000846406848600846406840F4806048606B
:100540000846406820F47C1048600846406840F443
:10055000E81048600846006840F08070086000BFFE
:100560000C48006800F000700028F9D00948406885
:1005700020F00300074948600846406840F0020048
:10058000486000BF0348406800F00C000828F9D11B
:100590000CBD00000010024000200240042808D1D9
:1005A0004FF0E021096941F004014FF0E0221161B0
:1005B00007E04FF0E021096921F004014FF0E0224B
:1005C0001161704710B51348006840F001001149EF
:1005D000086008464068104908400E4948600846CF
:1005E00000680E4908400B4908600846006820F47E
:1005F000802008600846406820F4FE0048604FF400
:100600001F008860FFF756FF4FF000600449086044
:1006100010BD0000001002400000FFF8FFFFF6FED2
:1006200008ED00E008B540F22551174800F0B3F896
:10063000012810D1144800F069F9C1B213480288AA
:100640000088401C114B18801148815440F22551FC
:100650000D4800F02AF840F224410B4800F09BF8C6
:1006600001280FD10848008800900748001D008825
:10067000009000200649054A128888540120054947
:10068000087000BF08BD00000038014024000020B1
:100690004C0000202600002001F40072B2F5007F1B
:1006A00000D100BFCA430280704710B5002200236A
:1006B00040F66A14A14200D100BF0A1201249440FE
:1006C000A3B2DC43048010BD21B1828942F4005200
:1006D000828104E082894DF6FF731A40828170475F
:1006E00010B504462048844209D101218803FFF750
:1006F00067FE00214FF48040FFF762FE32E01B48A6
:10070000844209D101214804FFF73AFE00214FF449
:100710000030FFF735FE25E01548844209D101215C
:100720008804FFF72DFE00214FF48020FFF728FEFC
:1007300018E01048844209D10121C804FFF720FEC7
:1007400000214FF40020FFF71BFE0BE00A48844213
:1007500008D101210805FFF713FE00214FF4801096
:10076000FFF70EFE10BD00000038014000440040BD
:1007700000480040004C004000500040024600206D
:10078000B1F5007F00D100BF13880B400BB10120F1
:1007900000E00020704770B50246002400230025C9
:1007A000002040F66A16B14200D100BFC1F34215E5
:1007B00001F01F03012606FA03F3012D02D19689E9
:1007C000334006E0022D02D1168A334001E0968ABA
:1007D00033400C12012606FA04F41688344013B193
:1007E0000CB1012000E0002070BDF0B503460024EC
:1007F00000260025002040F66A17B94200D100BF4C
:100800001846C1F3421401F01F06012707FA06F546
:10081000012C01D10C3004E0022C01D1103000E099
:1008200014301AB107682F43076002E00768AF432E
:100830000760F0BD2DE9F04786B005460E4600245E
:10084000A24600BFA1460027B08900B100BF2F46D5
:100850002C8A4CF6FF700440F08804432C82AC894B
:100860004EF6F3100440B08831890843718908437B
:100870000443AC81AC8A4FF6FF400440B089044386
:10088000AC8201A8FFF7ACFD1F48874202D1DDF81A
:1008900010A001E0DDF80CA0A88900F4004040B1F0
:1008A0000AEBCA0000EB0A1031684900B0FBF1F80E
:1008B00007E00AEBCA0000EB0A1031688900B0FBC0
:1008C000F1F86420B8FBF0F004012009642101FB79
:1008D0001089A88900F4004040B1322000EBC90023
:1008E000B0FBF1F000F00700044308E0322000EB19
:1008F00009106421B0FBF1F000F00F0004432C81DB
:1009000006B0BDE8F0870000003801400146888845
:10091000C0F308007047C1F30802828070474FF4AB
:100920001651016000218180C18001810C2141812B
:1009300000218181704700000FB4054B10B503A959
:10094000044A029800F018F810BC5DF814FB00008F
:10095000050E00084000002002E008C8121F08C170
:10096000002AFAD170477047002001E001C1121F30
:10097000002AFBD1704700002DE9FF4F8DB00F46D4
:100980000546002606E025280BD0DDE90F1290472A
:100990006D1C761C28780028F5D111B03046BDE8D2
:1009A000F08F0024A246A1460122EC4900E0044356
:1009B00015F8013F203B02FA03F00842F7D12878EE
:1009C0002A2810D06FF02F022878A0F130010929D1
:1009D00014D80AEB8A0102EB410144F0020400EB57
:1009E000010A6D1CF0E701CF5FEA000A03D544F469
:1009F0000054CAF1000A44F002046D1C28782E2825
:100A000017D115F8010F44F004042A280ED06FF016
:100A10002F022878A0F1300109290AD809EB8901B1
:100A200002EB410100EB01096D1CF2E757F8049B52
:100A30006D1C28786C280FD006DC4C2817D068284D
:100A40000DD06A2814D104E0742810D07A280FD170
:100A50000DE044F400140AE044F4801401E044F48E
:100A600040146978814202D104F580146D1C6D1C1C
:100A70002A786E2A1FD00CDC632A31D004DC002ACD
:100A80008BD0582A11D1A3E0642A68D0692A0CD1EE
:100A900065E0732A2ED004DC6F2A73D0702A04D14B
:100AA0009BE0752A6FD0782A6ED01046DDE90F12D0
:100AB0009047761C50E1C4F30250022806D0032868
:100AC00009D0042801CF09D0066045E101CFF11714
:100AD000C0E9006140E101CF06803DE106703BE1E5
:100AE00017F8040B8DF8000000208DF80100EB468C
:100AF000012003E057F804BB4FF0FF3061074FF0CF
:100B0000000102D40DE008F10101884649450FDAE1
:100B10008045F8DB1BF808100029F4D108E008F143
:100B2000010188468142FADB1BF808100029F6D142
:100B3000DDE90F23AAEB08008146214600F036F9D3
:100B4000304400EB080604E0DDE90F121BF8010B4E
:100B50009047B8F10108F7D221464846F7E00A214C
:100B6000C4F302534FF0000B0891022B04D001CFC5
:100B7000C117032B09D00AE0FF1D27F00707F7E88C
:100B8000020108E032E01FE020E000B2C117042BB0
:100B900001D140B2C117031E71F1000307DA4FF013
:100BA000000CD0EB0C006CEB01012D2302E02305BF
:100BB00004D52B238DF82430012303E0E30701D073
:100BC0002023F7E7984658E00A2110E010210EE0B4
:100BD00010204FF0000B08900CE010214FF0000B9C
:100BE00044F004044FF00809089103E008214FF095
:100BF000000B0891C4F30253022B04D001CF002153
:100C0000032B06D006E0FF1D27F00707F7E80201D7
:100C100003E080B2042B00D1C0B24FF000082307DC
:100C20002BD5702A07D0DDF820C08CF0100C5CEAC0
:100C30000B0C05D00EE040238DF82430012308E092
:100C400050EA010306D030238DF824308DF825209A
:100C500002239846DDF820C08CF0080C5CEA0B0CEF
:100C60000BD150EA010301D1630706D530238DF87B
:100C700024304FF00108A9F10109582A04D038A204
:100C80000B9208AA0A920BE03AA2F9E75B46089A8F
:100C9000FFF748FA0B9B9B5C0A9A521E0A9213704C
:100CA00050EA0102F2D10A98ADEB000000F1200BEE
:100CB000600702D524F4803401E04FF00109D945E2
:100CC00002DDA9EB0B0000E0002000EB0B0141442A
:100CD0000890AAEB010AE00306D4DDE90F232146C0
:100CE000504600F063F806444FF0000908E009A9F7
:100CF00011F80900DDE90F12904709F10109761C8E
:100D0000C145F4DBE0030CD5DDE90F232146504655
:100D100000F04CF8064404E0DDE90F123020904763
:100D2000761C0899481E08900029F5DC08E00A980E
:100D30000A990078491C0A91DDE90F129047761C48
:100D4000BBF10001ABF1010BF1DC21465046DDE9BE
:100D50000F2300F019F806446D1C1BE6092801005A
:100D60003031323334353637383961626364656621
:100D700000000000303132333435363738394142E3
:100D800043444546000000002DE9F041044600259B
:100D90001E461746880404D405E039462020B04793
:100DA0006D1C641EF9D52846BDE8F0812DE9F0419F
:100DB000044600251E469046C80301D5302700E0B2
:100DC0002027880404D505E041463846B0476D1C0D
:100DD000641EF9D52846BDE8F081000010B56FF01B
:100DE0000400FFF7DBFB044800680449B0FBF1F0A6
:100DF0000349086010BD00000000002000127A00C6
:100E00002800002070B504460D46E1B20548FFF702
:100E100082FD00BF80210348FFF7B0FC0028F9D015
:100E2000204670BD0038014010B5002821D0114B7C
:100E30000022001F196803E0814203D80A4649686E
:100E40000029F9D152B11368841A9C4204D1006878
:100E500018441060104602E0506000E0186039B19C
:100E600002680B1A934203D10B681A440260496866
:100E7000416010BD44000020FFF7B0FF4FF4E130A7
:100E800000F036F90BA0FFF757FD154915A0FFF745
:100E900053FD1E491EA0FFF74FFD274927A0FFF76E
:100EA0004BFD304930A0FFF747FD00F0A7F800BF29
:100EB000FEE700000D0A3D3D3D2053544D333246C0
:100EC000313033204D656D6F7279204C61796F75CB
:100ED000742044656D6F203D3D3D0D0A000000000B
:100EE00014000020676C6F62616C5F76617220286D
:100EF000696E697469616C697A65642920202020B3
:100F00003A203078253038580D0A000018000020AB
:100F1000676C6F62616C5F756E696E6974202875AD
:100F20006E696E6974292020202020203A203078B4
:100F3000253038580D0A0000CC110008676C6F622C
:100F4000616C5F636F6E73742028636F6E737429B6
:100F500020202020202020203A20307825303858AA
:100F60000D0A00001C0000207374617469635F67E0
:100F70006C6F62616C20287374617469632920202E
:100F8000202020203A203078253038580D0A0000E3
:100F9000F0B50B30154D20F007010024144A0FE086
:100FA00003688B420BD38B4205D95E1A43184768FE
:100FB000C3E9006700E04368136002C004E0021D5B
:100FC00010680028ECD12046002802D1286808B11A
:100FD0000020F0BD064A07481060074A121A22F0A6
:100FE0000702C0E9002401202860D7E7480000205C
:100FF00044000020540400205006002038B54FF46F
:10100000FA7000900420FFF7C3FF04464FF41670F7
:1010100020600BA0FFF790FC114912A0FFF78CFC99
:1010200069461AA0FFF788FC214622A0FFF784FC3E
:101030002AA02168FFF780FC2046FFF7F5FE38BDA7
:101040003D3D3D20496E7369646520746573745F2E
:1010500066756E6374696F6E203D3D3D0D0A00003C
:10106000200000207374617469635F6C6F63616C4E
:101070002028737461746963206C6F63616C29202C
:101080003A203078253038580D0A00006C6F6361C3
:101090006C5F7661722028737461636B2920202055
:1010A00020202020202020203A2030782530385859
:1010B0000D0A0000686561705F76617220286865BE
:1010C0006170292020202020202020202020202086
:1010D0003A203078253038580D0A00002A686561BA
:1010E000705F766172203D2025640D0A00000000CB
:1010F00010B586B00446012144F20500FFF750F90F
:1011000005A8FFF7FDF84FF40070ADF814001820A3
:101110008DF8170003208DF8160005A92948FFF760
:1011200064F805A8FFF7ECF84FF48060ADF8140000
:1011300004208DF8170005A92248FFF756F8012171
:101140008803FFF72DF92048FFF7CAFA01A8FFF737
:10115000E6FB01940020ADF80800ADF80A00ADF8F8
:101160000C000C20ADF80E000020ADF8100001A915
:101170001548FFF75FFB20211348FFF78DFA102178
:101180001148FFF789FA012240F225510E48FFF776
:101190002CFB012240F224410B48FFF726FB0121E2
:1011A0000948FFF791FA25208DF8000001208DF8FD
:1011B00001008DF802008DF803006846FFF7A8F8DB
:1011C00006B010BD0008014000380140C800000012
:1011D000F0110008000000204C0000005809000831
:1011E0003C1200084C000020040A000068090008B6
:1011F00000A24A04000000000000000001020304F5
:101200000607080964000000000000002C0100002F
:10121000900100000000000000000000000000003D
:101220000102030401020304060708090204060878
:0C123000000000000000000000000000B2
:04000005080000ED02
:00000001FF
